:08000000803102288731FB2F3B
:100ECA000800080087316E278731873179278731F3
:100EDA006A2F21000C148C140C158C150C168D120B
:100EEA008D1523008D150800FF30F5007508FA00EE
:100EFA00F9018A2F7B308731B7278731F5007508CA
:100F0A00FA000130F5007508F9077A080319912FDC
:100F1A0004307902031C7F2F7A08031D9B2F7C085B
:100F2A00F1007B08F0008731652787318731662712
:100F3A0087312C30F7000130F8007708780403195C
:100F4A0008001530F6004B30F500BE30890BAB2F88
:100F5A00F50BAB2FF60BAB2F00320130F702003046
:100F6A00F83BA22FF40021001D08833924389D0084
:100F7A001E088F3950389E009E171D140D30890B9C
:100F8A00C42F00003C30F0007008F30021009D14CB
:100F9A007308031D9D1CD42F0130F302CD2F730853
:100FAA000319F92F7408860087010030C03FC13F3A
:100FBA001C080339F000F1017008F100F00174080F
:100FCA0086008701700881044131710881041B0879
:100FDA00F000F1017408860087017008810441312C
:100FEA00710881040030080001300800FB01FC018F
:060FFA0020008731672F83
:020000040001F9
:04000E00FACFFFFE28
:00000001FF
