:020000040000FA
:1000000047EF00F0FFFFFFFF5C82D9CF02F0DACFAD
:1000100003F00E01CDAB0FEF00F011EF00F022EF77
:1000200000F0000E0001DA25D96EDA6A010EDA223C
:1000300099CFDFFFDA2B0E01CD9B010E0001DB6FA4
:1000400041EF00F0CAAB27EF00F029EF00F041EFDD
:1000500000F084AA2EEF00F032EF00F0016A012ACE
:1000600033EF00F0016A013A014684500118DF0BBA
:100070000118846E0E01CA9B0001B84BB92B820E89
:10008000D36E03C0DAFF02C0D9FF5C9211001BEFF0
:10009000ADF0FFFFFFFFFFFFFFFFFFFFFFFFFFFFD1
:1000A000FFFFFFFFFFFFFFFFFFFFFFFFFFFFFFFF60
:1000B000FFFFFFFFFFFFFFFFFFFFFFFFFFFFFFFF50
:1000C000FFFFFFFFFFFFFFFFFFFFFFFFFFFFFFFF40
:1000D000FFFFFFFFFFFFFFFFFFFFFFFFFFFFFFFF30
:10FC8000FFFFFFFFFFFFFFFFFFFFFFFFFFFF001F63
:10FC90001C1F1E1F1E1F1F1E1F1E1F437572726515
:10FCA0006E742064617465206561726C6965722090
:10FCB0007468616E20686561646572206F66206992
:10FCC0006E64696361746564207061676520696E44
:10FCD000204E564D210A005741524E494E47212091
:10FCE000546869732077696C6C2072657365742041
:10FCF000454550524F4D207061676520636F756EAA
:10FD00007465722E0043757272656E74206461743E
:10FD100065206E6F7420636F72726563746C7920F6
:10FD20006C6F616465642066726F6D20525443216C
:10FD30000A00454550524F4D207061676520696E3D
:10FD40006465782066726F6D20696E7465726E618D
:10FD50006C206D656D6F72793A2030780054696D52
:10FD600065206E6F74207365742120537461727402
:10FD7000696E6720757020696E2073616665206DFD
:10FD80006F64652E2E2E0A004E564D2073746F72CE
:10FD9000656420454550524F4D207061676520696C
:10FDA0006E64657820696E76616C6964210A004929
:10FDB0006E697469616C697A6174696F6E206572CD
:10FDC000726F722E2053797374656D2068616C7444
:10FDD00065642E004E6F2076616C69642045455045
:10FDE000524F4D207061676520666F756E64210A01
:10FDF000004C617374207265636569766564207078
:10FE000061636B6574206964783A20307800496ECC
:10FE10006372656D656E74696E6720454550524F1B
:10FE20004D20706167652E2E2E0044617461206D37
:10FE3000656D6F7279207365747570206661696C89
:10FE40006564210A0053746F726564206461746193
:10FE50002077696C6C206265206C6F73742E005281
:10FE6000544320636F6E74726F6C207265676973A0
:10FE70007465723A20307800436F6D706C656D6503
:10FE80006E7461727920696E6465783A203078000A
:10FE9000446973706C617920696E697469616C6919
:10FEA0007A65642E2E2E0A0043757272656E742078
:10FEB000454550524F4D20706167653A20307800BB
:10FEC000536F6C61722070616E656C20766F6C741C
:10FED0006167653A2030780052617720696E7465F9
:10FEE000726E616C2074656D703A203078005465D4
:10FEF0006D7065726174757265204D6F6E69746F97
:10FF000072004261747465727920766F6C746167F7
:10FF1000653A2030780050616765206461746573CC
:10FF200074616D703A203078005061636B657420A5
:10FF3000636F756E743A203078005574696C732065
:10FF40002620537461747300566572696679205275
:10FF500065736574005261772074656D703A203066
:10FF60007800496E6465783A20307800436F6E748B
:10FF7000696E75653F0053414645204D4F4445002D
:10FF8000446174653A203078005365742054696D7B
:10FF90006500525353493A202D0052544320465392
:10FFA000004D6F6E746800536C65657000486F6D2E
:10FFB00065005765656B005574696C004E756C6C17
:10FFC000005965617200496E6974002D3078003AFD
:10FFD00030780056290A005965730053657400444F
:10FFE0006179003F0A002028003230004E6F00186F
:10FFF0000019001A001B0020002F0035003A0000F5
:020000040001F9
:10000000D7ECA1F0ACECB1F0000E096EFA0E086E60
:10001000000E0B6E0A0E0A6E1DECB1F0020E59ECCA
:10002000B0F0FF0E096E086810ECAEF03A0E0C6EE0
:10003000FF0E0D6E000E0F6E0E0E0E6EB4EC9EF0E7
:10004000010E59ECB0F0000E096E2D0E086E010E77
:100050000B6EBE0E0A6E1DECB1F0AD0E0C6EFF0EF7
:100060000D6E000E0F6E040E0E6EB4EC9EF0000EC0
:10007000096EAF0E086E010E0B6EBE0E0A6E1DEC01
:10008000B1F08D0E0C6EFF0E0D6E000E0F6E040E95
:100090000E6EB4EC9EF0010E096E180E086E010E85
:1000A0000B6EBE0E0A6E1DECB1F09A0E0C6EFF0EBA
:1000B0000D6E000E0F6E060E0E6EB4EC9EF0010E6D
:1000C000096EAE0E086E010E0B6EBE0E0A6E1DECB2
:1000D000B1F04F0E0C6EFF0E0D6E000E0F6E050E82
:1000E0000E6EB4EC9EF0020E096E3A0E086E010E12
:1000F0000B6EBE0E0A6E1DECB1F0BC0E0C6EFF0E48
:100100000D6E000E0F6E040E0E6EB4EC9EF0020E1D
:10011000096EBC0E086E010E0B6EBE0E0A6E1DEC53
:10012000B1F0C60E0C6EFF0E0D6E000E0F6E040EBB
:100130000E6EB4EC9EF0000E59ECB0F0050E00010E
:10014000DC6F300E0C6EFD0E0D6E000E0F6E010E8C
:100150000E6EB4EC9EF0A80E0C6EFE0E0D6E000E30
:100160000F6E170E0E6EB4EC9EF0E5C004F0E6C004
:1001700005F04E0E066E000E076E3BECA1F04E0E23
:100180000C6E000E0D6E000E0F6E040E0E6EB4ECB3
:100190009EF0300E0C6EFD0E0D6E000E0F6E010EF9
:1001A0000E6EB4EC9EF05F0E0C6EFE0E0D6E000E29
:1001B0000F6E180E0E6EB4EC9EF04E0E126E000E08
:1001C000136E0F0E16ECB2F0D7ECACF04E0E0C6EB8
:1001D000000E0D6E000E0F6E020E0E6EB4EC9EF051
:1001E000300E0C6EFD0E0D6E000E0F6E010E0E6EBB
:1001F000B4EC9EF0300E0C6EFD0E0D6E000E0F6E08
:10020000010E0E6EB4EC9EF0F10E0C6EFD0E0D6E36
:10021000000E0F6E1C0E0E6EB4EC9EF0B0C004F01B
:10022000B1C005F04E0E066E000E076E3BECA1F05D
:100230004E0E0C6E000E0D6E000E0F6E040E0E6E46
:10024000B4EC9EF0300E0C6EFD0E0D6E000E0F6EB7
:10025000010E0E6EB4EC9EF0290E0C6EFF0E0D6EAC
:10026000000E0F6E100E0E6EB4EC9EF0A6C004F0E1
:10027000A7C005F04E0E066E000E076E3BECA1F017
:100280004E0E0C6E000E0D6E000E0F6E040E0E6EF6
:10029000B4EC9EF0300E0C6EFD0E0D6E000E0F6E67
:1002A000010E0E6EB4EC9EF0550E0C6EFF0E0D6E30
:1002B000000E0F6E0C0E0E6EB4EC9EF0AEC004F08D
:1002C000AFC005F04E0E066E000E076E3BECA1F0BF
:1002D0004E0E0C6E000E0D6E000E0F6E040E0E6EA6
:1002E000B4EC9EF0300E0C6EFD0E0D6E000E0F6E17
:1002F000010E0E6EB4EC9EF0D80E0C6EFE0E0D6E5E
:10030000000E0F6E150E0E6EB4EC9EF0ACC004F035
:10031000ADC005F04E0E066E000E076E3BECA1F070
:100320004E0E0C6E000E0D6E000E0F6E040E0E6E55
:10033000B4EC9EF0300E0C6EFD0E0D6E000E0F6EC6
:10034000010E0E6EB4EC9EF0020E0C6EFF0E0D6EE2
:10035000000E0F6E130E0E6EB4EC9EF0AAC004F0E9
:10036000ABC005F04E0E066E000E076E3BECA1F022
:100370004E0E0C6E000E0D6E000E0F6E040E0E6E05
:10038000B4EC9EF0E60E0C6EFF0E0D6E000E0F6EBE
:10039000020E0E6EB4EC9EF0AAC00EF0ABC00FF0D1
:1003A000106A116A000E51EC9CF00EC052F00FC0A2
:1003B00053F010C054F011C055F052C01CF053C09F
:1003C0001DF054C01EF055C01FF0330E206E330ECA
:1003D000216ED30E226E3B0E236E8FEC8DF01CC06F
:1003E00052F01DC053F01EC054F01FC055F04E0E09
:1003F000126E000E136E010E146E52C004F053C044
:1004000005F054C006F055C007F07EECA3F0045090
:100410002BEC9DF0500E0C6E000E0D6E000E0F6E4C
:10042000010E0E6EB4EC9EF0280E0C6EFE0E0D6EDC
:10043000000E0F6E010E0E6EB4EC9EF052C045F031
:1004400053C046F054C047F055C048F052C004F0C5
:1004500053C005F054C006F055C007F07EECA3F081
:1004600004500E6E0F6A106A116A000E51EC9CF077
:100470000EC049F00FC04AF010C04BF011C04CF054
:10048000B1ECAFF045C052F046C053F047C054F055
:1004900048C055F052C01CF053C01DF054C01EF0AF
:1004A00055C01FF0000E206E000E216EC80E226E89
:1004B000420E236E8FEC8DF01CC052F01DC053F025
:1004C0001EC054F01FC055F04E0E126E000E136E7B
:1004D000010E146E52C004F053C005F054C006F073
:1004E00055C007F07EECA3F004502BEC9DF04F0EAE
:1004F0000C6E000E0D6E000E0F6E020E0E6EB4EC42
:100500009EF0D30E0C6EFF0E0D6E000E0F6E030EDE
:100510000E6EB4EC9EF0C00E0C6EFE0E0D6E000E54
:100520000F6E170E0E6EB4EC9EF0A8C004F0A9C0BA
:1005300005F04E0E066E000E076E3BECA1F04E0E5F
:100540000C6E000E0D6E000E0F6E040E0E6EB4ECEF
:100550009EF0E60E0C6EFF0E0D6E000E0F6E020E7C
:100560000E6EB4EC9EF0A8C00EF0A9C00FF0106A99
:10057000116A000E51EC9CF00EC052F00FC053F007
:1005800010C054F011C055F052C01CF053C01DF003
:1005900054C01EF055C01FF0330E206E330E216E76
:1005A000D30E226E3B0E236E8FEC8DF01CC052F0EA
:1005B0001DC053F01EC054F01FC055F04E0E126EF9
:1005C000000E136E010E146E52C004F053C005F0FD
:1005D00054C006F055C007F07EECA3F004502BEC9D
:1005E0009DF0500E0C6E000E0D6E000E0F6E010E83
:1005F0000E6EB4EC9EF0280E0C6EFE0E0D6E000E0C
:100600000F6E010E0E6EB4EC9EF052C045F053C05A
:1006100046F054C047F055C048F052C004F053C0F3
:1006200005F054C006F055C007F07EECA3F004506E
:100630000E6E0F6A106A116A000E51EC9CF00EC02B
:1006400049F00FC04AF010C04BF011C04CF0B1ECB3
:10065000AFF045C052F046C053F047C054F048C018
:1006600055F052C01CF053C01DF054C01EF055C0D0
:100670001FF0000E206E000E216EC80E226E420E7C
:10068000236E8FEC8DF01CC052F01DC053F01EC0C5
:1006900054F01FC055F04E0E126E000E136E010E78
:1006A000146E52C004F053C005F054C006F055C09B
:1006B00007F07EECA3F004502BEC9DF04F0E0C6E77
:1006C000000E0D6E000E0F6E020E0E6EB4EC9EF05C
:1006D000D30E0C6EFF0E0D6E000E0F6E030E0E6E1F
:1006E000B4EC9EF0920E0C6EFF0E0D6E000E0F6EAF
:1006F000070E0E6EB4EC9EF00001D9BF82EF83F0BE
:1007000084EF83F090EF83F0E30E0C6EFF0E0D6E1E
:10071000000E0F6E020E0E6EB4EC9EF0B0EF83F082
:10072000D95100084D6E4E0E126E000E136E010E62
:10073000146E4D502BEC9DF04E0E0C6E000E0D6E97
:10074000000E0F6E030E0E6EB4EC9EF0300E0C6EAB
:10075000FD0E0D6E000E0F6E010E0E6EB4EC9EF0CF
:100760001200ACECB1F0000E096E640E086E000EC3
:100770000B6EC80E0A6E1DECB1F0FF0E096E086814
:10078000000E0B6E000E0A6E14ECA8F0020E59EC6F
:10079000B0F0E90E0C6EFF0E0D6E000E0F6E020E25
:1007A0000E6EB4EC9EF0170E126E000E136E010E5C
:1007B000146E0001CC39070B2BEC9DF05A50D8A4D5
:1007C000E4EF83F0E6EF83F004EF84F0000E096EAF
:1007D000000E086EFF0E0B6E0A6814ECA8F0190EDE
:1007E0000C6E000E0D6E000E0F6E010E0E6EB4EC50
:1007F0009EF0FF0E096E0868000E0B6E000E0A6E6A
:1008000014ECA8F00EEF84F0190E0C6E000E0D6EB5
:10081000000E0F6E010E0E6EB4EC9EF0170E126EEF
:10082000000E136E010E146E0001CC510F0B2BEC59
:100830009DF05A04D8A41FEF84F021EF84F03FEF1D
:1008400084F0000E096E000E086EFF0E0B6E0A6833
:1008500014ECA8F0190E0C6E000E0D6E000E0F6E4B
:10086000010E0E6EB4EC9EF0FF0E096E0868000ECD
:100870000B6E000E0A6E14ECA8F049EF84F0190E0E
:100880000C6E000E0D6E000E0F6E010E0E6EB4ECAF
:100890009EF0F90E0C6EFF0E0D6E000E0F6E010E27
:1008A0000E6EB4EC9EF0170E126E000E136E010E5B
:1008B000146E0001CD39070B2BEC9DF0020E5A1877
:1008C000D8A465EF84F067EF84F085EF84F0000E24
:1008D000096E000E086EFF0E0B6E0A6814ECA8F08D
:1008E000190E0C6E000E0D6E000E0F6E010E0E6EC8
:1008F000B4EC9EF0FF0E096E0868000E0B6E000E41
:100900000A6E14ECA8F08FEF84F0190E0C6E000E36
:100910000D6E000E0F6E010E0E6EB4EC9EF0170EF3
:10092000126E000E136E010E146E0001CD510F0BEE
:100930002BEC9DF0030E5A18D8A4A1EF84F0A3EF7E
:1009400084F0C1EF84F0000E096E000E086EFF0EF9
:100950000B6E0A6814ECA8F0190E0C6E000E0D6EEA
:10096000000E0F6E010E0E6EB4EC9EF0FF0E096EBF
:100970000868000E0B6E000E0A6E14ECA8F0CBEFA8
:1009800084F0190E0C6E000E0D6E000E0F6E010E2F
:100990000E6EB4EC9EF0F90E0C6EFF0E0D6E000E96
:1009A0000F6E010E0E6EB4EC9EF0170E126E000E5E
:1009B000136E010E146E5838070B2BEC9DF0040ECD
:1009C0005A18D8A4E6EF84F0E8EF84F006EF85F03B
:1009D000000E096E000E086EFF0E0B6E0A6814EC16
:1009E000A8F0190E0C6E000E0D6E000E0F6E010EAB
:1009F0000E6EB4EC9EF0FF0E096E0868000E0B6ED2
:100A0000000E0A6E14ECA8F010EF85F0190E0C6EB3
:100A1000000E0D6E000E0F6E010E0E6EB4EC9EF009
:100A2000170E126E000E136E010E146E58500F0B3F
:100A30002BEC9DF0050E5A18D8A421EF85F023EF7A
:100A400085F041EF85F0000E096E000E086EFF0E76
:100A50000B6E0A6814ECA8F0190E0C6E000E0D6EE9
:100A6000000E0F6E010E0E6EB4EC9EF0FF0E096EBE
:100A70000868000E0B6E000E0A6E14ECA8F04BEF27
:100A800085F0190E0C6E000E0D6E000E0F6E010E2D
:100A90000E6EB4EC9EF0F70E0C6EFF0E0D6E000E97
:100AA0000F6E010E0E6EB4EC9EF0170E126E000E5D
:100AB000136E010E146E5938030B2BEC9DF0060ECD
:100AC0005A18D8A466EF85F068EF85F086EF85F0B8
:100AD000000E096E000E086EFF0E0B6E0A6814EC15
:100AE000A8F0190E0C6E000E0D6E000E0F6E010EAA
:100AF0000E6EB4EC9EF0FF0E096E0868000E0B6ED1
:100B0000000E0A6E14ECA8F090EF85F0190E0C6E32
:100B1000000E0D6E000E0F6E010E0E6EB4EC9EF008
:100B2000170E126E000E136E010E146E59500F0B3D
:100B30002BEC9DF0070E5A18D8A4A1EF85F0A3EF77
:100B400085F0C1EF85F0000E096E000E086EFF0EF5
:100B50000B6E0A6814ECA8F0190E0C6E000E0D6EE8
:100B6000000E0F6E010E0E6EB4EC9EF0FF0E096EBD
:100B70000868000E0B6E000E0A6E14ECA8F0CBEFA6
:100B800085F0190E0C6E000E0D6E000E0F6E010E2C
:100B90000E6EB4EC9EF0FD0E0C6EFF0E0D6E000E90
:100BA0000F6E010E0E6EB4EC9EF0170E126E000E5C
:100BB000136E010E146E0001CE39070B2BEC9DF065
:100BC000080E5A18D8A4E7EF85F0E9EF85F007EF93
:100BD00086F0000E096E000E086EFF0E0B6E0A689E
:100BE00014ECA8F0190E0C6E000E0D6E000E0F6EB8
:100BF000010E0E6EB4EC9EF0FF0E096E0868000E3A
:100C00000B6E000E0A6E14ECA8F011EF86F0190EB0
:100C10000C6E000E0D6E000E0F6E010E0E6EB4EC1B
:100C20009EF0170E126E000E136E010E146E000170
:100C3000CE510F0B2BEC9DF0090E5A18D8A423EFC0
:100C400086F025EF86F043EF86F0000E096E000E69
:100C5000086EFF0E0B6E0A6814ECA8F0190E0C6EED
:100C6000000E0D6E000E0F6E010E0E6EB4EC9EF0B7
:100C7000FF0E096E0868000E0B6E000E0A6E14EC73
:100C8000A8F04DEF86F0190E0C6E000E0D6E000EE2
:100C90000F6E010E0E6EB4EC9EF0FD0E0C6EFF0E8C
:100CA0000D6E000E0F6E010E0E6EB4EC9EF0170E60
:100CB000126E000E136E010E146E0001CF39070B79
:100CC0002BEC9DF00A0E5A18D8A469EF86F06BEF52
:100CD00086F089EF86F0000E096E000E086EFF0E9A
:100CE0000B6E0A6814ECA8F0190E0C6E000E0D6E57
:100CF000000E0F6E010E0E6EB4EC9EF0FF0E096E2C
:100D00000868000E0B6E000E0A6E14ECA8F093EF4C
:100D100086F0190E0C6E000E0D6E000E0F6E010E99
:100D20000E6EB4EC9EF0170E126E000E136E010ED6
:100D3000146E0001CF510F0B2BEC9DF00B0E5A18C7
:100D4000D8A4A5EF86F0A7EF86F0C5EF86F0000ED9
:100D5000096E000E086EFF0E0B6E0A6814ECA8F008
:100D6000190E0C6E000E0D6E000E0F6E010E0E6E43
:100D7000B4EC9EF0FF0E096E0868000E0B6E000EBC
:100D80000A6E14ECA8F0CFEF86F0190E0C6E000E70
:100D90000D6E000E0F6E010E0E6EB4EC9EF0120082
:100DA0003850800B416E38503824436E37AEDBEF3D
:100DB00086F0DDEF86F0DEEF86F043804350D8B456
:100DC000E4EF86F0E6EF86F0FBEF86F04328D8A448
:100DD000ECEF86F0EEEF86F0F6EF86F0000E356E63
:100DE000000E366E000E376E000E386E378E000E17
:100DF000386E03EF87F0000E356E000E366E000E73
:100E0000376E000E386E3C50800B426E41504218D7
:100E1000D8B40DEF87F00FEF87F010EF87F0418C1B
:100E20003C503C24426E3BAE18EF87F01AEF87F03F
:100E30001BEF87F042804250D8B421EF87F023EFB8
:100E400087F038EF87F04228D8A429EF87F02BEFFE
:100E500087F033EF87F0000E396E000E3A6E000E09
:100E60003B6E000E3C6E3B8E000E3C6E40EF87F0FA
:100E7000000E396E000E3A6E000E3B6E000E3C6E98
:100E80004350425CD8B047EF87F049EF87F070EFEE
:100E900087F041AC4EEF87F050EF87F052EF87F0CC
:100EA000800E411A43C044F042C043F044C042F0B7
:100EB00035C044F039C035F044C039F036C044F094
:100EC0003AC036F044C03AF037C044F03BC037F087
:100ED00044C03BF038C044F03CC038F044C03CF063
:100EE000000E446E435042C03DF03E6A3D5E000E2F
:100EF0003E5A3EBE85EF87F03E5009E11A0E3D5C3A
:100F0000D8A085EF87F087EF87F0BEEF87F03550E8
:100F1000361037103810D8A490EF87F093EF87F091
:100F2000010E94EF87F0000E446E000E356E000E39
:100F3000366E000E376E000E386E42C043F0C7EFBB
:100F400087F044A0A6EF87F0A8EF87F0AEEF87F018
:100F5000D89044300109446EB0EF87F0D890443205
:100F600035A0B5EF87F0B7EF87F0B8EF87F0448E84
:100F700038343832373236323532432A4250435CC5
:100F8000D8A0C5EF87F0C7EF87F0A1EF87F041BC8D
:100F9000CCEF87F0CEEF87F00EEF88F04350D8A467
:100FA000D4EF87F0D6EF87F0E0EF87F0000E356ED4
:100FB000000E366E000E376E000E386E2FEF89F081
:100FC000395035263A5036223B5037223C50382291
:100FD00038A0EDEF87F0EFEF87F09BEF88F044A0AB
:100FE000F4EF87F0F6EF87F0FCEF87F0D89044300D
:100FF0000109446EFEEF87F0D890443235A003EF2C
:1010000088F005EF88F006EF88F0448E38343832E7
:10101000373236323532432A9BEF88F03950355C0F
:101020003A5036583B5037583850800A3D6E3C5045
:10103000800A3D58D8B01FEF88F021EF88F04CEFC0
:1010400088F03550395C3D6E36503A583E6E375018
:101050003B583F6E38503C58406EFF0E3D24356E75
:10106000FF0E3E20366EFF0E3F20376EFF0E4020F3
:10107000386E800E411A446C4450D8A442EF88F078
:1010800044EF88F054EF88F0010E3526000E36222A
:101090003722382254EF88F03950355E3A50365AAC
:1010A0003B50375A3C50385A3550361037103810AC
:1010B000D8A45DEF88F05FEF88F094EF88F044509B
:1010C000D8A465EF88F067EF88F094EF88F0000E01
:1010D000356E000E366E000E376E000E386E2FEF36
:1010E00089F0D890353636363736383644AE7BEF11
:1010F00088F07DEF88F07EEF88F0358044A083EFA4
:1011000088F085EF88F089EF88F0D88044368BEF3F
:1011100088F0D89044364350D8B491EF88F093EFDC
:1011200088F094EF88F0430637AE99EF88F09BEF94
:1011300088F071EF88F0000E426E44AEA2EF88F0A6
:10114000A4EF88F0BCEF88F044C03DF07F0E3D1660
:10115000D8B4ADEF88F0AFEF88F0B3EF88F0010EB0
:10116000426EBCEF88F035A0B8EF88F0BAEF88F097
:10117000BCEF88F0AFEF88F04250D8B4C2EF88F0EF
:10118000C4EF88F0EFEF88F0010E3526000E36220E
:101190003722382238A0CFEF88F0D1EF88F0EFEF78
:1011A00088F035C03DF036C03EF037C03FF038C063
:1011B00040F0403440323F323E323D323DC035F0A7
:1011C0003EC036F03FC037F040C038F04328D8B4B6
:1011D000ECEF88F0EEEF88F0EFEF88F0432A432839
:1011E000D8B4F5EF88F0F7EF88F0FFEF88F04350C0
:1011F000D8A4FDEF88F0FFEF88F011EF89F0000E22
:10120000356E000E366E000E376E000E386E43508F
:10121000D8A40DEF89F00FEF89F011EF89F0000EDF
:10122000416E43A016EF89F018EF89F01BEF89F0AB
:10123000378E1CEF89F0379ED8904330386E41AE20
:1012400024EF89F026EF89F027EF89F0388E35C03A
:1012500035F036C036F037C037F038C038F01200FD
:1012600039EF8BF00001CC39070B0009D8A43BEF14
:1012700089F03DEF89F043EF89F0CC518F0B1009D5
:10128000CC6F6CEF8BF0010E046ECC39070B056E42
:101290000450055E053ACC5105188F0B0518CC6F2C
:1012A0006CEF8BF00001CC510F0B0009D8A45BEF61
:1012B00089F05DEF89F063EF89F0CC51F00B0909FB
:1012C000CC6F6CEF8BF0010E046ECC510F0B056EE2
:1012D0000450055ECC510518F00B0518CC6F6CEF6F
:1012E0008BF00001CD510F0B046E030E04607BEFF9
:1012F00089F07DEF89F06CEF8BF0CD39070B000999
:10130000D8A485EF89F087EF89F08DEF89F0CD5172
:101310008F0B1009CD6F6CEF8BF0010E046ECD3981
:10132000070B056E0450055E053ACD5105188F0B6D
:101330000518CD6F6CEF8BF00001CD39070B00095C
:10134000D8A4A5EF89F0A7EF89F0C5EF89F0CD51BA
:101350000F0B0009D8A4AFEF89F0B1EF89F0B7EF18
:1013600089F0CD51F00B0909CD6F6CEF8BF0010EB8
:10137000046ECD510F0B056E0450055ECD5105185E
:10138000F00B0518CD6F6CEF8BF0CD510F0B0009F2
:10139000D8A4CDEF89F0CFEF89F0B7EF89F0CD5128
:1013A000F00B0209CD6F6CEF8BF058500F0B046EF1
:1013B000020E0460DEEF89F0E0EF89F0FFEF89F0C4
:1013C0005838070B0009D8A4E8EF89F0EAEF89F054
:1013D000F0EF89F058508F0B3009586E6CEF8BF09E
:1013E000010E046E5838070B056E0450055E053A71
:1013F000585005188F0B0518586E6CEF8BF0583845
:10140000070B0009D8A407EF8AF009EF8AF0F0EF84
:1014100089F058508F0B2009586E6CEF8BF05838BC
:10142000070B046E030E046018EF8AF01AEF8AF0BF
:1014300038EF8AF058500F0B0009D8A422EF8AF039
:1014400024EF8AF02AEF8AF05850F00B0909586E01
:101450006CEF8BF0010E046E58500F0B056E0450AC
:10146000055E58500518F00B0518586E6CEF8BF0A0
:1014700058500F0B0009D8A440EF8AF042EF8AF0D1
:101480002AEF8AF05850F00B0109586E6CEF8BF080
:1014900059500F0B046E050E046051EF8AF053EFA4
:1014A0008AF072EF8AF05938030B0009D8A45BEF79
:1014B0008AF05DEF8AF063EF8AF05950CF0B200974
:1014C000596E6CEF8BF0010E046E5938030B056EEC
:1014D0000450055E053A59500518CF0B0518596E92
:1014E0006CEF8BF05938030B0009D8A47AEF8AF01F
:1014F0007CEF8AF063EF8AF05950CF0B1009596ED8
:101500006CEF8BF05938030B046E020E04608BEF06
:101510008AF08DEF8AF0ABEF8AF059500F0B00097B
:10152000D8A495EF8AF097EF8AF09DEF8AF0595092
:10153000F00B0909596E6CEF8BF0010E046E5950D7
:101540000F0B056E0450055E59500518F00B051879
:10155000596E6CEF8BF059500F0B0009D8A4B3EF04
:101560008AF0B5EF8AF09DEF8AF05950F00B04092C
:10157000596E6CEF8BF00001CE39070B0009D8A42F
:10158000C4EF8AF0C6EF8AF0CCEF8AF0CE518F0B11
:101590005009CE6F6CEF8BF0010E046ECE39070B45
:1015A000056E0450055E053ACE5105188F0B0518DF
:1015B000CE6F6CEF8BF00001CE510F0B0009D8A459
:1015C000E4EF8AF0E6EF8AF0ECEF8AF0CE51F00B10
:1015D0000909CE6F6CEF8BF0010E046ECE510F0B2C
:1015E000056E0450055ECE510518F00B0518CE6F40
:1015F0006CEF8BF00001CF39070B0009D8A403EF83
:101600008BF005EF8BF00BEF8BF0CF518F0B500968
:10161000CF6F6CEF8BF0010E046ECF39070B056EA8
:101620000450055E053ACF5105188F0B0518CF6F92
:101630006CEF8BF00001CF510F0B0009D8A423EF02
:101640008BF025EF8BF02BEF8BF0CF51F00B0909CE
:10165000CF6F6CEF8BF0010E046ECF510F0B056E48
:101660000450055ECF510518F00B0518CF6F6CEFD5
:101670008BF05A50000AD8B432EF89F0010AD8B47E
:1016800052EF89F0030AD8B471EF89F0010AD8B497
:101690009CEF89F0070AD8B4D5EF89F0010AD8B4D5
:1016A0000FEF8AF0030AD8B448EF8AF0010AD8B4E1
:1016B00082EF8AF00F0AD8B4BBEF8AF0010AD8B4DF
:1016C000DBEF8AF0030AD8B4FAEF8AF0010AD8B443
:1016D0001AEF8BF06CEF8BF01200000E346E899ACB
:1016E000000E0F01116F000E196F000E216F000E1A
:1016F000266FF00E0E01D817D6501F0B4009D66E7C
:10170000D650F00B0709D66E820ED36EC28BD58EE3
:10171000F28CF28E48ECAEF03FECA9F00009D8B4A0
:1017200094EF8BF096EF8BF098EF8BF0010E346E08
:101730003450D8B49EEF8BF0A0EF8BF0A2EF8BF07B
:10174000A0EF8BF0B3ECB2F00009D8B4AAEF8BF0A5
:10175000ACEF8BF0AEEF8BF0010E346EA0ECA9F085
:101760000001EF29D8B4B7EF8BF0B9EF8BF0D1EFD0
:101770008BF0EE29D8B4BFEF8BF0C1EF8BF0D1EF37
:101780008BF05B28D8B4C7EF8BF0C9EF8BF0D1EFAB
:101790008BF0ED29D8A4CFEF8BF0D1EF8BF0DFEFFA
:1017A0008BF0050E0C6EFD0E0D6E000E0F6E2C0EE6
:1017B0000E6EB4EC9EF0010E346E91EF8CF0800E44
:1017C0000C6EFF0E0D6E000E0F6E080E0E6EB4EC5A
:1017D0009EF0350E126E000E136E0001D051D7EC44
:1017E000ACF0350E0C6E000E0D6E000E0F6E020E7C
:1017F0000E6EB4EC9EF0CB0E0C6EFF0E0D6E000E56
:101800000F6E030E0E6EB4EC9EF0350E126E000ECF
:10181000136E0001D151D7ECACF0350E0C6E000EFA
:101820000D6E000E0F6E020E0E6EB4EC9EF0CB0E1F
:101830000C6EFF0E0D6E000E0F6E030E0E6EB4ECEE
:101840009EF0350E126E000E136E0001D251D7ECD1
:10185000ACF0350E0C6E000E0D6E000E0F6E020E0B
:101860000E6EB4EC9EF0BC0E0C6EFE0E0D6E000EF5
:101870000F6E030E0E6EB4EC9EF0350E126E000E5F
:10188000136E0001D351D7ECACF0350E0C6E000E88
:101890000D6E000E0F6E020E0E6EB4EC9EF0CF0EAB
:1018A0000C6EFF0E0D6E000E0F6E030E0E6EB4EC7E
:1018B0009EF0350E126E000E136E0001D451D7EC5F
:1018C000ACF0350E0C6E000E0D6E000E0F6E020E9B
:1018D0000E6EB4EC9EF0CF0E0C6EFF0E0D6E000E71
:1018E0000F6E030E0E6EB4EC9EF0350E126E000EEF
:1018F000136E0001D551D7ECACF0350E0C6E000E16
:101900000D6E000E0F6E020E0E6EB4EC9EF0300ED9
:101910000C6EFD0E0D6E000E0F6E010E0E6EB4EC11
:101920009EF0120E0001EF6198EF8CF09AEF8CF0B0
:10193000A9EF8CF05D0E0C6EFD0E0D6E000E0F6E9D
:101940002A0E0E6EB4EC9EF0010E0001EB6FABEFB1
:101950008CF0000EEB6F3450D8A4B1EF8CF0B3EFE5
:101960008CF0CAEF8CF04AEC93F00009D8B4BBEFCE
:101970008CF0BDEF8CF0CAEF8CF02A0E0C6EFE0ED0
:101980000D6E000E0F6E1A0E0E6EB4EC9EF0010E70
:101990000001EB6F290E336E960E326E7F0EE82E2D
:1019A000FED7322EFCD7332EFAD700F0290E336E35
:1019B000960E326E7F0EE82EFED7322EFCD7332ED7
:1019C000FAD700F0290E336E960E326E7F0EE82E97
:1019D000FED7322EFCD7332EFAD700F0290E336E05
:1019E000960E326E7F0EE82EFED7322EFCD7332EA7
:1019F000FAD700F0290E336E960E326E7F0EE82E67
:101A0000FED7322EFCD7332EFAD700F0290E336ED4
:101A1000960E326E7F0EE82EFED7322EFCD7332E76
:101A2000FAD700F0290E336E960E326E7F0EE82E36
:101A3000FED7322EFCD7332EFAD700F0290E336EA4
:101A4000960E326E7F0EE82EFED7322EFCD7332E46
:101A5000FAD700F00001E52908E1E629D8B433EF10
:101A60008DF035EF8DF03DEF8DF0E5C01CF0E6C058
:101A70001DF0D3ECA6F047EF8DF0D40E0C6EFD0EEA
:101A80000D6E000E0F6E1C0E0E6EB4EC9EF0290E45
:101A9000336E960E326E7F0EE82EFED7322EFCD7B6
:101AA000332EFAD700F0290E336E960E326E7F0E6B
:101AB000E82EFED7322EFCD7332EFAD700F0290EAF
:101AC000336E960E326E7F0EE82EFED7322EFCD786
:101AD000332EFAD700F0290E336E960E326E7F0E3B
:101AE000E82EFED7322EFCD7332EFAD700F08A80AC
:101AF0008A828A848B808B828B860F01208120834F
:101B00002085258125832587000E0001CB6F000EDF
:101B1000CA6F000EC96F36ECB2F0345012001F507D
:101B2000800B286E1F501F242E6E1EAE9AEF8DF074
:101B30009CEF8DF09DEF8DF02E802E50D8B4A3EF4A
:101B40008DF0A5EF8DF0B8EF8DF02E28D8A4ABEF77
:101B50008DF0ADEF8DF0B5EF8DF0000E1C6E000E28
:101B60001D6E000E1E6E000E1F6E1E8EC0EF8DF0DD
:101B7000000E1C6E000E1D6E000E1E6E000E1F6EFF
:101B80002350800B281A235023242D6E22AECBEF36
:101B90008DF0CDEF8DF0CEEF8DF02D802D50D8B49F
:101BA000D4EF8DF0D6EF8DF0E9EF8DF02D28D8A48D
:101BB000DCEF8DF0DEEF8DF0E6EF8DF0000E206EA5
:101BC000000E216E000E226E000E236E228EF1EFAB
:101BD0008DF0000E206E000E216E000E226E000EA3
:101BE000236E2D50D8B4F7EF8DF0F9EF8DF001EFA3
:101BF0008EF02E50D8A4FFEF8DF001EF8EF00BEF9A
:101C00008EF0000E1C6E000E1D6E000E1E6E000E7D
:101C10001F6EA3EF8FF022501C02F3CF33F0F4CFEE
:101C200034F03350296E2A6A2B6A2C6A34502F6E96
:101C3000306A316A326A21501D02F3CF33F0F4CF9B
:101C400034F033502926000E2A222B222C22345025
:101C50002F26000E30223122322220501E02F3CFD6
:101C600033F0F4CF34F033502926000E2A222B22F1
:101C70002C2234502F26000E3022312232222BC04B
:101C80002CF02AC02BF029C02AF0296A20501D020E
:101C9000F3CF33F0F4CF34F03350292634502A22D6
:101CA000000E2B22000E2C2221501C02F3CF33F009
:101CB000F4CF34F03350292634502A22000E2B2240
:101CC000000E2C222BC02CF02AC02BF029C02AF0A9
:101CD000296A20501C02F3CF33F0F4CF34F0335094
:101CE000292634502A22000E2B22000E2C222250AC
:101CF0001D02F3CF33F0F4CF34F033502F2634509D
:101D00003022000E3122000E322221501E02F3CF6B
:101D100033F0F4CF34F033502F2634503022000EFD
:101D20003122000E322222501E02F3CF33F0F4CFC4
:101D300034F03350246E3450256E266A276A26C04C
:101D400027F025C026F024C025F0246A24502F2631
:101D500025503022265031222750322229C024F02B
:101D60002AC025F02BC026F02CC027F0190EBEEF9C
:101D70008EF0D8902732263225322432E82EB9EF61
:101D80008EF024502F262550302226503122275005
:101D900032222BC02CF02AC02BF029C02AF0296A4D
:101DA0002D502EC024F0256A2426000E2522820EF6
:101DB0002424336EFF0E2520346EF4EF8EF0D8907D
:101DC0002F363036313632362CAEE9EF8EF0EBEF6F
:101DD0008EF0ECEF8EF02F80D89029362A362B36F5
:101DE0002C363306D8A0340631AEF9EF8EF0FBEF77
:101DF0008EF0DFEF8EF0000E2D6E2CAE02EF8FF026
:101E000004EF8FF028EF8FF0FF0E2914246EFF0EE1
:101E10002A14256EFF0E2B14266E7F0E2C14276EAF
:101E20002450251026102710D8B419EF8FF01BEF7F
:101E30008FF01FEF8FF0010E2D6E28EF8FF02FA087
:101E400024EF8FF026EF8FF028EF8FF01BEF8FF04D
:101E50002D50D8B42EEF8FF030EF8FF054EF8FF07D
:101E6000010E2F26000E30223122322232A03BEF0B
:101E70008FF03DEF8FF054EF8FF02FC024F030C083
:101E800025F031C026F032C027F027342732263221
:101E90002532243224C02FF025C030F026C031F086
:101EA00027C032F0334A342A34BE5FEF8FF034500B
:101EB00008E13328D8A05FEF8FF061EF8FF06BEF70
:101EC0008FF0000E2F6E000E306E800E316E7F0E82
:101ED000326E99EF8FF034BE78EF8FF0345006E118
:101EE0003304D8B076EF8FF078EF8FF084EF8FF077
:101EF000000E2F6E000E306E000E316E000E326E30
:101F0000000E286E99EF8FF033C02EF0FF0E2F16C3
:101F1000FF0E30167F0E3116000E32162EA093EFF4
:101F20008FF095EF8FF096EF8FF0318ED8902E30A6
:101F3000326E285032122FC01CF030C01DF031C05C
:101F40001EF032C01FF0120081EF91F00001CC3979
:101F5000070B090AD8A4AFEF8FF0B1EF8FF0B5EF00
:101F60008FF08F0ECC17B4EF91F0010E046ECC39C8
:101F7000070B056E04500526053ACC5105188F0B4A
:101F80000518CC6FB4EF91F00001CC510F0B090A8A
:101F9000D8A4CDEF8FF0CFEF8FF0D3EF8FF0F00E0E
:101FA000CC17B4EF91F0010E046ECC510F0B056EFF
:101FB00004500526CC510518F00B0518CC6FB4EF72
:101FC00091F00001CD510F0B046E030E0460EBEF96
:101FD0008FF0EDEF8FF0B4EF91F0CD39070BE806FD
:101FE000D8A4F5EF8FF0F7EF8FF0FBEF8FF08F0EA7
:101FF000CD17B4EF91F0010E046ECD39070B056ECD
:1020000004500526053ACD5105188F0B0518CD6FE4
:10201000B4EF91F00001CD39070B0009D8A413EFFC
:1020200090F015EF90F031EF90F0CD510F0B090AC1
:10203000D8A41DEF90F01FEF90F023EF90F0F00E7A
:10204000CD17B4EF91F0010E046ECD510F0B056E5C
:1020500004500526CD510518F00B0518CD6FB4EFCF
:1020600091F0CD510F0B020AD8A439EF90F03BEF5D
:1020700090F023EF90F01FEF90F058500F0B046E8C
:10208000020E046046EF90F048EF90F065EF90F09C
:102090005838070B030AD8A450EF90F052EF90F095
:1020A00056EF90F08F0E5816B4EF91F0010E046EBB
:1020B0005838070B056E04500526053A5850051888
:1020C0008F0B0518586EB4EF91F05838070B020AC1
:1020D000D8A46DEF90F06FEF90F056EF90F052EFC4
:1020E00090F05838070B046E030E04607AEF90F0FE
:1020F0007CEF90F098EF90F058500F0B090AD8A49D
:1021000084EF90F086EF90F08AEF90F0F00E581682
:10211000B4EF91F0010E046E58500F0B056E045091
:10212000052658500518F00B0518586EB4EF91F0BD
:1021300058500F0BE806D8A4A0EF90F0A2EF90F053
:102140008AEF90F086EF90F059500F0B046E050E59
:102150000460ADEF90F0AFEF90F0CCEF90F0593815
:10216000030B020AD8A4B7EF90F0B9EF90F0BDEFDF
:1021700090F0CF0E5916B4EF91F0010E046E59385D
:10218000030B056E04500526053A59500518CF0B70
:102190000518596EB4EF91F05938030BE806D8A42E
:1021A000D4EF90F0D6EF90F0BDEF90F0B9EF90F053
:1021B0005938030B046E020E0460E1EF90F0E3EF78
:1021C00090F0FFEF90F059500F0B090AD8A4EBEFF5
:1021D00090F0EDEF90F0F1EF90F0F00E5916B4EFB3
:1021E00091F0010E046E59500F0B056E0450052638
:1021F00059500518F00B0518596EB4EF91F059506D
:102200000F0B040AD8A407EF91F009EF91F0F1EF5A
:1022100090F0EDEF90F00001CE39070B050AD8A43D
:1022200014EF91F016EF91F01AEF91F08F0ECE1798
:10223000B4EF91F0010E046ECE39070B056E045019
:102240000526053ACE5105188F0B0518CE6FB4EF51
:1022500091F00001CE510F0B090AD8A432EF91F092
:1022600034EF91F038EF91F0F00ECE17B4EF91F01B
:10227000010E046ECE510F0B056E04500526CE5193
:102280000518F00B0518CE6FB4EF91F00001CF39AF
:10229000070B050AD8A44FEF91F051EF91F055EFDD
:1022A00091F08F0ECF17B4EF91F0010E046ECF397D
:1022B000070B056E04500526053ACF5105188F0B04
:1022C0000518CF6FB4EF91F00001CF510F0B090A41
:1022D000D8A46DEF91F06FEF91F073EF91F0F00EE5
:1022E000CF17B4EF91F0010E046ECF510F0B056EB6
:1022F00004500526CF510518F00B0518CF6FB4EF29
:1023000091F05A50000AD8B4A6EF8FF0010AD8B461
:10231000C4EF8FF0030AD8B4E1EF8FF0010AD8B40C
:102320000AEF90F0070AD8B43DEF90F0010AD8B454
:1023300071EF90F0030AD8B4A4EF90F0010AD8B47A
:10234000D8EF90F00F0AD8B40BEF91F0010AD8B48F
:1023500029EF91F0030AD8B446EF91F0010AD8B4FE
:1023600064EF91F0B4EF91F01200D7ECA1F0000E01
:102370000D6E230E0C6E010E0F6E950E0E6E020E7C
:10238000116EFD0E106E010E136E950E126EFF0E85
:10239000156E146843ECA7F0000E0D6E230E0C6E44
:1023A000010E0F6E950E0E6E000E116E230E106E46
:1023B000000E136E500E126EFF0E156E146843EC75
:1023C000A7F0020E0D6EFD0E0C6E010E0F6E950E37
:1023D0000E6E020E116EFD0E106E000E136E500E7C
:1023E000126EFF0E156E146843ECA7F0010E256EF9
:1023F000950E246E1E0E266E000E1A6E200E196E9D
:1024000024C01BF025C01CF0000E1E6E030E1D6EB6
:10241000FF0E206E1F6804ECB1F0280E245E000E43
:10242000255A0A0E26266E0E266419EF92F01BEF2F
:1024300092F0FCEF91F0010E256E950E246E1E0EAB
:10244000266E020E1A6EFD0E196E24C01BF025C0FA
:102450001CF0000E1E6E030E1D6EFF0E206E1F6818
:1024600004ECB1F0280E245E000E255A0A0E262632
:102470006E0E26643EEF92F040EF92F021EF92F064
:10248000ACECB1F0FF0E096E086810ECAEF0000E77
:1024900059ECB0F0010E256E950E246E1E0E266EC0
:1024A000000E096E000E086EF60E24240A6EFF0E52
:1024B00025200B6E1DECB1F0210E126E000E136E76
:1024C000000E146E26502BEC9DF0210E0C6E000EAB
:1024D0000D6E000E0F6E030E0E6EB4EC9EF0280E05
:1024E000245E000E255A0A0E26266E0E26647BEF09
:1024F00092F07DEF92F050EF92F0010E256E950E66
:10250000246E1E0E266E030E096E010E086EF60E68
:1025100024240A6EFF0E25200B6E1DECB1F0210E57
:10252000126E000E136E000E146E26502BEC9DF0F2
:10253000210E0C6E000E0D6E000E0F6E030E0E6E51
:10254000B4EC9EF0280E245E000E255A0A0E2626B4
:102550006E0E2664AEEF92F0B0EF92F083EF92F041
:10256000ACECB1F0000E096EAA0E086E000E0B6EF8
:102570000A0E0A6E1DECB1F0020E59ECB0F0FF0E1F
:10258000096E086810ECAEF0EE0E0C6EFE0E0D6ECD
:10259000000E0F6E130E0E6EB4EC9EF0010E59EC91
:1025A000B0F0000E096E2D0E086E010E0B6EBE0E01
:1025B0000A6E1DECB1F0DF0E0C6EFF0E0D6E000EFC
:1025C0000F6E040E0E6EB4EC9EF0000E096EAF0E90
:1025D000086E010E0B6EBE0E0A6E1DECB1F0B20E4F
:1025E0000C6EFF0E0D6E000E0F6E050E0E6EB4EC2F
:1025F0009EF0010E096E2C0E086E010E0B6EBE0EC3
:102600000A6E1DECB1F0A10E0C6EFF0E0D6E000EE9
:102610000F6E060E0E6EB4EC9EF0010E096EB30E38
:10262000086E010E0B6EBE0E0A6E1DECB1F0C10EEF
:102630000C6EFF0E0D6E000E0F6E050E0E6EB4ECDE
:102640009EF0020E096E3A0E086E010E0B6EBE0E63
:102650000A6E1DECB1F0B70E0C6EFF0E0D6E000E83
:102660000F6E050E0E6EB4EC9EF0020E096EB70EE4
:10267000086E010E0B6EBE0E0A6E1DECB1F0A70EB9
:102680000C6EFF0E0D6E000E0F6E060E0E6EB4EC8D
:102690009EF01200000E056E010E046E8CECB2F07E
:1026A0001F6E000E056E000E046E8CECB2F0206EF4
:1026B0001F50306E20C031F0000E056E030E046E08
:1026C0008CECB2F01F6E000E056E020E046E8CECE8
:1026D000B2F0206E1F50236E20C024F0231C1F6E0A
:1026E000241C206E30501F1809E131502018D8B436
:1026F0007CEF93F07EEF93F0DBEF93F0880E0C6E9F
:10270000FD0E0D6E000E0F6E260E0E6EB4EC9EF0DA
:10271000620E0C6EFF0E0D6E000E0F6E090E0E6E29
:10272000B4EC9EF030C004F031C005F0280E066E07
:10273000000E076E3BECA1F0280E0C6E000E0D6E25
:10274000000E0F6E040E0E6EB4EC9EF0300E0C6E8A
:10275000FD0E0D6E000E0F6E010E0E6EB4EC9EF0AF
:10276000780E0C6EFE0E0D6E000E0F6E170E0E6EB6
:10277000B4EC9EF023C004F024C005F0280E066ED1
:10278000000E076E3BECA1F0280E0C6E000E0D6ED5
:10279000000E0F6E040E0E6EB4EC9EF0300E0C6E3A
:1027A000FD0E0D6E000E0F6E010E0E6EB4EC9EF05F
:1027B000010EAFEF94F0320E0C6EFD0E0D6E000E9A
:1027C0000F6E2A0E0E6EB4EC9EF030C004F031C0D5
:1027D00005F0280E066E000E076E3BECA1F0280EE9
:1027E0000C6E000E0D6E000E0F6E040E0E6EB4EC2D
:1027F0009EF0300E0C6EFD0E0D6E000E0F6E010E73
:102800000E6EB4EC9EF0EEC004F05BC005F000016B
:10281000EF51E0ECAEF004C02CF005C02DF03050CC
:10282000206E1F6A1FC025F020C026F0276AFF0E09
:102830002516FF0E2616030E271625C007F026C004
:1028400008F027C009F001ECABF01F6E1F50216E9D
:10285000206A010E2524076E000E2620086E000E49
:102860002720096E01ECABF0226E225020102E6E54
:1028700021502F6E160E0C6EFF0E0D6E000E0F6E99
:10288000120E0E6EB4EC9EF02EC004F02FC005F0B8
:10289000280E066E000E076E3BECA1F0280E0C6EA3
:1028A000000E0D6E000E0F6E040E0E6EB4EC9EF058
:1028B000300E0C6EFD0E0D6E000E0F6E010E0E6EC4
:1028C000B4EC9EF02F9E30C0E5F031C0E6F02C5005
:1028D0002E1807E12D502F18D8A471EF94F073EF44
:1028E00094F076EF94F0000EAFEF94F02C502E5C45
:1028F0002D502F58D8B07FEF94F081EF94F08FEFE8
:1029000094F00E0E0C6EFE0E0D6E000E0F6E1B0E72
:102910000E6EB4EC9EF055ECABF073EF94F02E50CD
:102920002C5C2F502D58D8B098EF94F09AEF94F07B
:10293000D8EF93F09B0E0C6EFC0E0D6E000E0F6E1A
:102940003B0E0E6EB4EC9EF00001EB51D8B4ABEF31
:1029500094F0ADEF94F0D8EF93F073EF94F0120091
:102960000001C951D8B4B7EF94F0B9EF94F0D3EFA8
:1029700094F0D751D8B4BFEF94F0C1EF94F0D3EFF7
:1029800094F0000E4FECB1F0150E0001F16F4B0EFC
:10299000F06FBE0EE82EFED7F02FFCD7F12FFAD73E
:1029A00000F003EF96F0C9A1D8EF94F0DAEF94F0BD
:1029B000FAEF94F0EBEF94F0000EA7ECABF003EF1E
:1029C00096F0000E3BECAFF003EF96F0000E3BEC00
:1029D000AFF003EF96F0D851000AD8B4DCEF94F0D2
:1029E000010AD8B4E1EF94F0030AD8B4E6EF94F00A
:1029F00003EF96F0C9A3FFEF94F001EF95F035EFE8
:102A000095F026EF95F0010EA7ECABF003EF96F0F2
:102A1000020E3BECAFF0A0ECA9F0D5C0CFF0D4C0D3
:102A2000CEF0D3C059F0D2C058F0D1C0CDF0D0C054
:102A3000CCF0000E5A6EB1EC83F003EF96F090EC00
:102A4000ACF0000E3BECAFF003EF96F0D851000A6B
:102A5000D8B403EF95F0010AD8B408EF95F0030A53
:102A6000D8B41FEF95F003EF96F0C9A53AEF95F0B3
:102A70003CEF95F06EEF95F05BEF95F0020EA7EC52
:102A8000ABF003EF96F095ECB1F003EF96F05A50EF
:102A9000D8A44DEF95F04FEF95F053EF95F00B0E56
:102AA0005A6E1BEF95F05A061BEF95F0000E3BECAB
:102AB000AFF003EF96F0D851000AD8B43EEF95F08E
:102AC000010AD8B443EF95F0030AD8B447EF95F064
:102AD000010AD8B456EF95F003EF96F0C9A773EF4B
:102AE00095F075EF95F0A7EF95F094EF95F0030E44
:102AF000A7ECABF003EF96F0FF0003EF96F00B0EA0
:102B00005A18D8A486EF95F088EF95F08AEF95F0E3
:102B100019EF95F05A2A1BEF95F0000EEB6F7CEC45
:102B2000AEF0FF0003EF96F0D851000AD8B477EF6B
:102B300095F0010AD8B47CEF95F0030AD8B47FEF82
:102B400095F0010AD8B48DEF95F003EF96F0C9A97E
:102B5000ACEF95F0AEEF95F0C8EF95F0B9EF95F0CA
:102B6000010E3BECAFF003EF96F0A4EC8FF01BEFFF
:102B700095F0D851000AD8B4B0EF95F0010AD8B456
:102B800003EF96F0030AD8B4B5EF95F003EF96F093
:102B9000C9ABCDEF95F0CFEF95F0EEEF95F0DFEF0D
:102BA00095F0010E4FECB1F003EF96F0030E3BEC05
:102BB000AFF003EF96F030EC89F01BEF95F0D851B1
:102BC000000AD8B4D1EF95F0010AD8B4D6EF95F049
:102BD000030AD8B4DBEF95F003EF96F0C951D8B4EF
:102BE000F4EF95F0F6EF95F003EF96F0190E000173
:102BF000F16F5A0EF06FB10EE82EFED7F02FFCD712
:102C0000F12FFAD700D01200ACECB1F0020E096E31
:102C10006C0E086E000E0B6E0A0E0A6E1DECB1F003
:102C2000FF0E096E0868000E0B6E000E0A6E14ECA3
:102C3000A8F0000E59ECB0F0E90E0C6EFF0E0D6E10
:102C4000000E0F6E020E0E6EB4EC9EF0170E126E9A
:102C5000000E136E010E146E0001D039070B2BEC21
:102C60009DF0190E0C6E000E0D6E000E0F6E010E13
:102C70000E6EB4EC9EF0170E126E000E136E010E67
:102C8000146E0001D0510F0B2BEC9DF0190E0C6E41
:102C9000000E0D6E000E0F6E010E0E6EB4EC9EF067
:102CA000F90E0C6EFF0E0D6E000E0F6E010E0E6E05
:102CB000B4EC9EF0170E126E000E136E010E146E21
:102CC0000001D139070B2BEC9DF0190E0C6E000E94
:102CD0000D6E000E0F6E010E0E6EB4EC9EF0170E10
:102CE000126E000E136E010E146E0001D1510F0B07
:102CF0002BEC9DF0190E0C6E000E0D6E000E0F6E7B
:102D0000010E0E6EB4EC9EF0F90E0C6EFF0E0D6E01
:102D1000000E0F6E010E0E6EB4EC9EF0170E126ECA
:102D2000000E136E010E146E0001D239070B2BEC4E
:102D30009DF0190E0C6E000E0D6E000E0F6E010E42
:102D40000E6EB4EC9EF0170E126E000E136E010E96
:102D5000146E0001D2510F0B2BEC9DF0190E0C6E6E
:102D6000000E0D6E000E0F6E010E0E6EB4EC9EF096
:102D7000F70E0C6EFF0E0D6E000E0F6E010E0E6E36
:102D8000B4EC9EF0170E126E000E136E010E146E50
:102D90000001D339030B2BEC9DF0190E0C6E000EC5
:102DA0000D6E000E0F6E010E0E6EB4EC9EF0170E3F
:102DB000126E000E136E010E146E0001D3510F0B34
:102DC0002BEC9DF0190E0C6E000E0D6E000E0F6EAA
:102DD000010E0E6EB4EC9EF0FD0E0C6EFF0E0D6E2D
:102DE000000E0F6E010E0E6EB4EC9EF0170E126EFA
:102DF000000E136E010E146E0001D439070B2BEC7C
:102E00009DF0190E0C6E000E0D6E000E0F6E010E71
:102E10000E6EB4EC9EF0170E126E000E136E010EC5
:102E2000146E0001D4510F0B2BEC9DF0190E0C6E9B
:102E3000000E0D6E000E0F6E010E0E6EB4EC9EF0C5
:102E4000FD0E0C6EFF0E0D6E000E0F6E010E0E6E5F
:102E5000B4EC9EF0170E126E000E136E010E146E7F
:102E60000001D539070B2BEC9DF0190E0C6E000EEE
:102E70000D6E000E0F6E010E0E6EB4EC9EF0170E6E
:102E8000126E000E136E010E146E0001D5510F0B61
:102E90002BEC9DF0190E0C6E000E0D6E000E0F6ED9
:102EA000010E0E6EB4EC9EF012005EECADF00C0E56
:102EB000126E100E95ECB2F00001DD51D8A463EF54
:102EC00097F065EF97F079EF97F0820E196E0A0E82
:102ED0001C6E080E1A6E300E1B6E000E1F6E030E57
:102EE0001E6E000E216E080E206E0A0E1D6E8BEFF8
:102EF00097F0810E196E1A0E1C6E200E1A6E600E5F
:102F00001B6E000E1F6E200E1E6E000E216E170E21
:102F1000206E020E1D6E19C012F0040E95ECB2F078
:102F2000150E156EC60EE82EFED7152EFCD700D056
:102F3000B4C015F0B5C016F0D89016321532D8903E
:102F400016321532D890163215321504126E140E40
:102F500095ECB2F0000E126E150E95ECB2F0FE0E6E
:102F60001C240A6E0B6AFF0E0B22000E0D6E080E5B
:102F70000C6EDDECA8F00A50126E160E95ECB2F055
:102F80001AC00AF00B6A000E0D6E080E0C6EDDEC16
:102F9000A8F00A04126E170E95ECB2F01BC00AF0EE
:102FA0000B6A000E0D6E080E0C6EDDECA8F00A0424
:102FB000126E180E95ECB2F00001B205126E190EE9
:102FC00095ECB2F0FF0E156EFF0E166EB2C017F044
:102FD000B3C018F0155017261650182218C017F055
:102FE000186A1750126E1A0E95ECB2F01E04126E8B
:102FF0001B0E95ECB2F01F50126E1C0E95ECB2F049
:103000002004126E1D0E95ECB2F02150126E1E0EB1
:1030100095ECB2F01D04126E1F0E95ECB2F0000E8E
:10302000126E300E95ECB2F0000E126E310E95EC71
:10303000B2F00001B405126E340E95ECB2F0FF0E42
:10304000156EFF0E166EB4C017F0B5C018F015500F
:1030500017261650182218C017F0186A1750126E4B
:10306000350E95ECB2F0000E126E320E95ECB2F009
:10307000000E126E330E95ECB2F00001B205126E26
:10308000360E95ECB2F0FF0E156EFF0E166EB2C046
:1030900017F0B3C018F0155017261650182218C094
:1030A00017F0186A1750126E370E95ECB2F0800EBA
:1030B000126E8E0E95ECB2F0290E166E960E156EEF
:1030C0007F0EE82EFED7152EFCD7162EFAD700F06D
:1030D0001200E7C0F5F05BC0F6F00001DB51D8B498
:1030E00074EF98F076EF98F08EEF98F0020E0001F2
:1030F000F36FA00EF26F920EE82EFED7F22FFCD7E0
:10310000F32FFAD700F00EECAFF0AEC04DF0AFC029
:103110004EF002ECA0F00001EA6F00F00001E35174
:10312000E411D8A496EF98F098EF98F0AFEF98F0EC
:10313000000EE46F640EE36FA0ECA9F004EC96F0CF
:10314000D1ECB0F0B0EC94F00001EB51D8B4ABEF9F
:1031500098F0ADEF98F0AFEF98F039ECB0F00001D7
:10316000E151E211D8A4B7EF98F0B9EF98F015EF5C
:1031700099F0270EE26F100EE16FABECAAF00001A0
:10318000D851D8A4C6EF98F0C8EF98F015EF99F091
:1031900002EF99F07EECB1F083ECA4F07CEC99F0B6
:1031A000000E286EF00E276ED8ECADF015EF99F0FA
:1031B0007EECB1F0F8ECA2F075EC9AF0010E286EFE
:1031C000500E276ED8ECADF015EF99F07EECB1F013
:1031D0006BECA2F063EC9BF0010E286E680E276E7C
:1031E000D8ECADF015EF99F07EECB1F0ACECA7F0B7
:1031F0005DEC9FF0010E286E6D0E276ED8ECADF0E1
:1032000015EF99F0D651000AD8B4CAEF98F0010A28
:10321000D8B4D8EF98F0030AD8B4E6EF98F0010AD2
:10322000D8B4F4EF98F015EF99F00001E307D8A0B7
:10323000E407E107D8A0E207F551F26FF36BE7511D
:10324000F21909E1E851F319D8B429EF99F02BEFFD
:1032500099F063EF99F0E7C004F0E8C005F0000EC4
:10326000076E060E066EAEECAEF004500510D8A444
:103270003CEF99F03EEF99F063EF99F0E7C004F06E
:10328000E8C005F0000E076E060E066E9EECADF06F
:1032900004500001F76FF751E5C0F2F0E6C0F3F01B
:1032A000F2C0F3F0F26BF227000EF323020EF227C6
:1032B000000EF323F2C007F0F3C008F0096AEAC079
:1032C0000AF0ECECA5F05B500001F619D8B46BEFF6
:1032D00099F06DEF99F06FEF99F055ECABF00F0EA0
:1032E00016ECB2F0150E0001F26FC60EE82EFED7F6
:1032F000F22FFCD700F01200000E236E000E226E9B
:10330000000E2224D96E020E2320DA6EFF0EDF6E2D
:10331000224A232A6C0E225C010E2358D8A093EF78
:1033200099F095EF99F080EF99F0EEC004F05B040E
:10333000056E0001EF51E0ECAEF004C018F005C0DE
:1033400019F00001E5510F6E0E6A0EC015F00FC0A6
:1033500016F0176A000E0E6EFF0E0F6EE551116E1D
:10336000106A0E5010260F50112210C01DF011C00F
:103370001EF01F6A1DC007F01EC008F01FC009F034
:1033800001ECABF00E6E0E50106E0F6A010E1D2494
:10339000076E000E1E20086E000E1F20096E01EC45
:1033A000ABF0116E11500F101A6E10501B6EE7C06B
:1033B00004F0E8C005F0000E076E060E066E9EECE7
:1033C000ADF00450F008206E0550D8A0E82A00089F
:1033D000216E2050FE081C6E000E236E000E226E21
:1033E00027EF9AF018501A1807E119501B18D8A4A3
:1033F000FCEF99F0FEEF99F01DEF9AF0000E2224F9
:10340000D96E020E2320DA6E1C5022240E6E000E9E
:1034100023200F6E0EC010F00FC011F0126A1D5065
:103420001010076E1E501110086E1F501210096EFA
:1034300001ECABF0DF6E25EF9AF0000E2224D96E7E
:10344000020E2320DA6EFF0EDF6E224A232A20505E
:10345000225C21502358D8A030EF9AF032EF9AF036
:10346000F2EF99F0000E236E000E226E5FEF9AF0DD
:10347000000E0E6E020E0F6E20500E2621500F22EF
:1034800022500E24D96E23500F20DA6E020E222411
:10349000106E000E2320116E10C012F011C013F038
:1034A000146A15501210076E16501310086E17503C
:1034B0001410096E01ECABF0DF6E224A232AE7C03C
:1034C00004F0E8C005F0000E076E060E066E9EECD6
:1034D000ADF00450225C05502358D8A072EF9AF04A
:1034E00074EF9AF038EF9AF01200000E226E000E80
:1034F000216E000E226E000E216E000E2124D96E68
:10350000020E2220DA6EFF0EDF6E214A222A6C0E96
:10351000215C010E2258D8A090EF9AF092EF9AF019
:103520007DEF9AF0EEC01FF05BC017F0EFC016F011
:10353000080E5B609EEF9AF0A0EF9AF0BEEF9AF053
:10354000010E1F64A6EF9AF0A8EF9AF0ABEF9AF085
:103550001F06AEEF9AF00C0E1F6E16068F0E1F247C
:10356000F66EF76AFC0EF722F86A000EF8220800E1
:10357000F5505B24F90F176EC0EF9AF0070E175E37
:103580001FC004F017C005F01650E0ECAEF004C008
:1035900012F005C013F0E5C01AF0E6C01BF0E7C05A
:1035A00004F0E8C005F0000E076E060E066E9EECF5
:1035B000ADF00450020F206E000E226E000E216E40
:1035C0001A500F6E0E6A0EC01CF00FC01DF01E6A5E
:1035D0001CC007F01DC008F01EC009F001ECABF0E4
:1035E0000E6E0E50106E0F6A010E1C24076E000E38
:1035F0001D20086E000E1E20096E01ECABF0116E4E
:1036000011500F10186E1050196E1250185C135094
:103610001958D8A00EEF9BF010EF9BF062EF9BF0D3
:10362000182806E11928D8A418EF9BF01AEF9BF090
:103630001CEF9BF062EF9BF020501C24076E000EE5
:103640001D20086E000E1E20096E01ECABF0146EFA
:1036500021504F08D96E2250D8A0E82A0308DA6E0C
:1036600014C0DFFF060E206438EF9BF03AEF9BF0AA
:103670003EEF9BF0050E205E55EF9BF01A501B109D
:10368000D8A445EF9BF047EF9BF04CEF9BF0030E67
:103690001B6E1A684FEF9BF01A06D8A01B0620502D
:1036A0000608156E1550F108206E214A222A500E88
:1036B000215C010E2258D8A060EF9BF062EF9BF0D6
:1036C000E0EF9AF01200000E226E000E216E000E46
:1036D000226E000E216E000E2124D96E020E2220D1
:1036E000DA6EFF0EDF6E214A222A6C0E215C010E7B
:1036F0002258D8A07EEF9BF080EF9BF06BEF9BF001
:10370000EEC01FF05BC017F0EFC016F01F0E5B603D
:103710008CEF9BF08EEF9BF0ACEF9BF0010E1F64E3
:1037200094EF9BF096EF9BF099EF9BF01F069CEFB8
:103730009BF00C0E1F6E16068F0E1F24F66EF76A96
:10374000FC0EF722F86A000EF8220800F5505B2400
:10375000E20F176EAEEF9BF01E0E175E1FC004F057
:1037600017C005F01650E0ECAEF004C012F005C032
:1037700013F0E5C01AF0E6C01BF0E7C004F0E8C0A3
:1037800005F0000E076E060E066E9EECADF00450BE
:10379000020F206E000E226E000E216E1A500F6E68
:1037A0000E6A0EC01CF00FC01DF01E6A1CC007F090
:1037B0001DC008F01EC009F001ECABF00E6E0E50FB
:1037C000106E0F6A010E1C24076E000E1D20086E7D
:1037D000000E1E20096E01ECABF0116E11500F109F
:1037E000186E1050196E1250185C13501958D8A04A
:1037F000FCEF9BF0FEEF9BF050EF9CF0182806E1E9
:103800001928D8A406EF9CF008EF9CF00AEF9CF072
:1038100050EF9CF020501C24076E000E1D20086EF7
:10382000000E1E20096E01ECABF0146E21506808EA
:10383000D96E2250D8A0E82A0308DA6E14C0DFFF40
:10384000150E206426EF9CF028EF9CF02CEF9CF0E6
:10385000140E205E43EF9CF01A501B10D8A433EFD7
:103860009CF035EF9CF03AEF9CF0030E1B6E1A684B
:103870003DEF9CF01A06D8A01B0620501508156EC7
:103880001550F108206E214A222A680E215C010E93
:103890002258D8A04EEF9CF050EF9CF0CEEF9BF05A
:1038A0001200166E1650D8B458EF9CF05AEF9CF0E8
:1038B0007CEF9CF011BE61EF9CF05FEF9CF07CEF21
:1038C0009CF00EC012F00FC013F010C014F011C025
:1038D00015F0121E131E141E151E122A000E13229E
:1038E0001422152212C018F013C019F014C01AF0D7
:1038F00015C01BF084EF9CF00EC018F00FC019F03B
:1039000010C01AF011C01BF00E500F101010111043
:10391000D8A48DEF9CF08FEF9CF099EF9CF0000EF7
:103920000E6E000E0F6E000E106E000E116E2AEF5E
:103930009DF0960E176EA3EF9CF0172AD8901B32BD
:103940001A3219321832000E1814126E000E1914A1
:10395000136E000E1A14146EFE0E1B14156E125008
:10396000131014101510D8A4B8EF9CF0BAEF9CF007
:103970009DEF9CF0C8EF9CF0172A010E1826000E50
:1039800019221A221B22D8901B321A3219321832ED
:10399000000E1814126E000E1914136E000E1A1475
:1039A000146EFF0E1B14156E125013101410151008
:1039B000D8A4DDEF9CF0DFEF9CF0BCEF9CF0E7EFCC
:1039C0009CF01706D890183619361A361B361ABED0
:1039D000ECEF9CF0EEEF9CF0F6EF9CF0020E17601F
:1039E000F4EF9CF0F6EF9CF0E1EF9CF017B0FBEFEA
:1039F0009CF0FDEF9CF0FEEF9CF01A9ED8901732E1
:103A000017C012F0136A146A156A12C015F0146A0E
:103A1000136A126A125018121350191214501A1203
:103A200015501B121650D8B418EF9DF01AEF9DF0E8
:103A300022EF9DF011BE21EF9DF01FEF9DF022EFD0
:103A40009DF01B8E18C00EF019C00FF01AC010F0B8
:103A50001BC011F01200156E15C00AF00B6A000EA3
:103A60000D6E640E0C6EDDECA8F00A50166E16504A
:103A7000D8A43DEF9DF03FEF9DF04FEF9DF0145027
:103A8000D8A445EF9DF047EF9DF04FEF9DF012C099
:103A9000D9FF13C0DAFF200EDF6E56EF9DF01650EF
:103AA000300F12C0D9FF13C0DAFFDF6E000E076EB1
:103AB000640E066E15C004F0056AFBECA9F004C0A4
:103AC0000AF005C00BF0000E0D6E0A0E0C6EDDEC58
:103AD000A8F00A50166E1650D8A471EF9DF073EF3F
:103AE0009DF097EF9DF01450D8A479EF9DF07BEFF7
:103AF0009DF097EF9DF015C00AF00B6A000E0D6E59
:103B0000640E0C6EDDECA8F00A500B10D8A48BEFFD
:103B10009DF08DEF9DF097EF9DF020EE01F012509B
:103B2000D9261350DA22200EDF6EA0EF9DF020EE92
:103B300001F01250D9261350DA221650300FDF6EE2
:103B400015C004F0056A000E076E0A0E066EFBEC47
:103B5000A9F00450166E1650D8A4B1EF9DF0B3EF43
:103B60009DF0F3EF9DF01450D8A4B9EF9DF0BBEF9A
:103B70009DF0F3EF9DF015C00AF00B6A000E0D6E7C
:103B8000640E0C6EDDECA8F00A500B10D8A4CBEF3D
:103B90009DF0CDEF9DF0F3EF9DF0000E076E640EEB
:103BA000066E15C004F0056AFBECA9F004C00AF02B
:103BB00005C00BF0000E0D6E0A0E0C6EDDECA8F0C9
:103BC0000A500B10D8A4E7EF9DF0E9EF9DF0F3EF5A
:103BD0009DF020EE02F01250D9261350DA22200E6A
:103BE000DF6EFCEF9DF020EE02F01250D92613504C
:103BF000DA221650300FDF6E12008C929AA2AAB20F
:103C0000B8BEC4CACED2D6D8DADADADAD8D6D4D0A8
:103C1000CCC6C2BAB4AEA69E968E867E766E68601C
:103C20005A544E4A46423E3C3C3C3C3C3E40444852
:103C30004E52585E666E747C848C949CA4ACB2BA6E
:103C4000C0C6CAD0D2D6D8DADADADAD8D6D4D0CA50
:103C5000C6C0BAB4ACA49C948C847E766E66605860
:103C6000544E4844423E3C3C3C3C3C3E42444A4E1E
:103C7000545A60686E767E868E969EA6ACB4BAC0A4
:103C8000C6CCD0D4D6D8DADADADAD8D6D2CECAC40C
:103C9000C0B8B2AAA49C948C847C746C665E5852A2
:103CA0004C4844403E3C3C3C3C3C4042464A4E54DE
:103CB0005A62687078808890969EA6AEB4BCC2C8DE
:103CC000CCD0D4D6DADADADADAD8D6D2CECAC4BED2
:103CD000B8B0AAA29A928A827A726C645E56524CEA
:103CE0004844403E3C3C3C3C3E4042464A50565C88
:103CF000626A707880889098A0A8B0B6BCC2C8CC20
:103D0000D2D4D8DADADADADAD8D4D2CEC8C2BCB6AB
:103D1000B0A8A0989088807A726A625C56504C462F
:103D200042403E3C3C3C3C3E4044484C50565C6427
:103D30006A727A828A929AA2A8B0B8BEC4C8CED259
:103D4000D6D8DADADADADAD8D4D0CCC8C2BCB6AE91
:103D5000A6A098908880787068625C54504A464269
:103D6000403E3C3C3C3C3EFF020E82ECB2F0000E7A
:103D7000136E000E126E51EF9FF012500C24106E55
:103D800013500D20116E10C0F6FF11C0F7FF000E8A
:103D9000F86E0E0EF76403D00800F55005D0F6CF8C
:103DA000E9FFF7CFEAFFEF500A0AD8A4DAEF9EF056
:103DB000DCEF9EF02EEF9FF01AEF9FF0000E096EE1
:103DC0000A0E086EDC2BDC510E0DF3CF0AF0F4CF97
:103DD0000BF01DECB1F047EF9FF0000E096E0A0EDC
:103DE000086EDC2BDC51180DF3CF0AF0F4CF0BF08A
:103DF0001DECB1F047EF9FF0000E096E0A0E086E41
:103E0000DC2BDC512C0DF3CF0AF0F4CF0BF01DECC2
:103E1000B1F047EF9FF0000E096E0A0E086EDC2B22
:103E2000DC51540DF3CF0AF0F4CF0BF01DECB1F0E0
:103E300047EF9FF00001DE51000AD8B4DEEF9EF09C
:103E4000010AD8B4EDEF9EF0030AD8B4FCEF9EF05F
:103E5000010AD8B40BEF9FF047EF9FF012500C24EB
:103E6000106E13500D20116E10C0F6FF11C0F7FF39
:103E7000000EF86E0E0EF76403D00800F55005D062
:103E8000F6CFE9FFF7CFEAFFEF5078ECB2F0150E6E
:103E9000106EC60EE82EFED7102EFCD700D0124AA8
:103EA000132A0E50125C0F501358D8A05AEF9FF0EF
:103EB0005CEF9FF0BDEF9EF01200000E1D6E000E35
:103EC0001C6E000E1D6E000E1C6E000E1C24D96EA2
:103ED000020E1D20DA6EFF0EDF6E1C4A1D2A6C0ECC
:103EE0001C5C010E1D58D8A078EF9FF07AEF9FF070
:103EF00065EF9FF0EEC004F05BC005F00001EF0538
:103F0000E0ECAEF004C012F005C013F0FF0E0001AB
:103F1000E525176EFF0EE621186E000E1D6E000ED1
:103F20001C6E17500F6E0E6A0EC019F00FC01AF0FB
:103F30001B6A19C007F01AC008F01BC009F001EC99
:103F4000ABF00E6E0E50106E0F6A010E1924076E44
:103F5000000E1A20086E000E1B20096E01ECABF05B
:103F6000116E11500F10156E1050166E1250155C18
:103F700013501658D8A0BFEF9FF0C1EF9FF001EF8C
:103F8000A0F0152806E11628D8A4C9EF9FF0CBEFC2
:103F90009FF0CDEF9FF001EFA0F0FE0E1924076E09
:103FA000000E1A20086E000E1B20096E01ECABF00B
:103FB000146E1C506C08D96E1D50D8A0E82A030856
:103FC000DA6E14C0DFFF17501810D8A4EAEF9FF084
:103FD000ECEF9FF0F1EF9FF0030E186E1768F4EF0F
:103FE0009FF01706D8A018061C4A1D2A6D0E1C5CEF
:103FF000010E1D58D8A0FFEF9FF001EFA0F091EF48
:104000009FF01200660E206E660E216EE60E226E86
:104010003D0E236E4DC00EF04EC00FF0106A116AB7
:10402000000E51EC9CF00EC01CF00FC01DF010C033
:104030001EF011C01FF08FEC8DF01CC035F01DC0BC
:1040400036F01EC037F01FC038F0000E396E000E7B
:104050003A6E000E3B6E420E3C6ED0EC86F035C0E0
:1040600053F036C054F037C055F038C056F053C046
:1040700004F054C005F055C006F056C007F0000E1D
:10408000086E000E096E7F0E0A6E430E0B6E01EC79
:10409000A4F0D8A04EEFA0F050EFA0F053EFA0F0A6
:1040A00057685FEFA0F053C004F054C005F055C04E
:1040B00006F056C007F07EECA3F00450576E53C0D4
:1040C00045F054C046F055C047F056C048F0575030
:1040D0000E6E0F6A106A116A000E51EC9CF00EC051
:1040E00049F00FC04AF010C04BF011C04CF0B1ECD9
:1040F000AFF045C04FF046C050F047C051F048C047
:1041000052F0D89057364FC004F050C005F051C05F
:1041100006F052C007F0000E086E000E096E000E89
:104120000A6E3F0E0B6E01ECA4F0D8A09AEFA0F03F
:104130009CEFA0F09DEFA0F0578057501200D7ECF5
:10414000A1F0ACECB1F0000E096EFA0E086E000E94
:104150000B6E0A0E0A6E1DECB1F0020E59ECB0F0B7
:10416000FF0E096E086810ECAEF0890E0C6EFF0EA3
:104170000D6E000E0F6E080E0E6EB4EC9EF0010E6A
:1041800059ECB0F0000E096E2D0E086E010E0B6E8C
:10419000BE0E0A6E1DECB1F0AD0E0C6EFF0E0D6E74
:1041A000000E0F6E040E0E6EB4EC9EF0000E096E43
:1041B000AF0E086E010E0B6EBE0E0A6E1DECB1F056
:1041C000DB0E0C6EFF0E0D6E000E0F6E030E0E6EEC
:1041D000B4EC9EF0010E096E2C0E086E010E0B6EF3
:1041E000BE0E0A6E1DECB1F0F50E0C6EFF0E0D6EDC
:1041F000000E0F6E010E0E6EB4EC9EF0010E096EF5
:10420000B30E086E010E0B6EBE0E0A6E1DECB1F001
:10421000F30E0C6EFF0E0D6E000E0F6E010E0E6E85
:10422000B4EC9EF0020E096E3A0E086E010E0B6E93
:10423000BE0E0A6E1DECB1F0EF0E0C6EFF0E0D6E91
:10424000000E0F6E010E0E6EB4EC9EF0020E096EA3
:10425000B70E086E010E0B6EBE0E0A6E1DECB1F0AD
:10426000F10E0C6EFF0E0D6E000E0F6E010E0E6E37
:10427000B4EC9EF0120005380F0B0B6E0C6A0C505C
:1042800007E10A0E0B5CD8B048EFA1F04AEFA1F0AD
:1042900053EFA1F00B50300F06C0D9FF07C0DAFF73
:1042A000DF6E5AEFA1F00B50370F06C0D9FF07C0E1
:1042B000DAFFDF6E04C008F005C009F009C008F09D
:1042C000096A0F0E08140B6E0C6A0C5007E10A0EF7
:1042D0000B5CD8B06EEFA1F070EFA1F07BEFA1F016
:1042E00020EE01F00650D9260750DA220B50300F8D
:1042F000DF6E84EFA1F020EE01F00650D9260750C2
:10430000DA220B50370FDF6E04C008F005C009F049
:10431000040E0A6ED890093208320A2E8AEFA1F0F4
:104320000F0E08140B6E0C6A0C5007E10A0E0B5CA2
:10433000D8B09DEFA1F09FEFA1F0AAEFA1F020EE81
:1043400002F00650D9260750DA220B50300FDF6EEC
:10435000B3EFA1F020EE02F00650D9260750DA2282
:104360000B50370FDF6E0F0E04140B6E0C6A0C50DF
:1043700007E10A0E0B5CD8B0C0EFA1F0C2EFA1F0CC
:10438000CDEFA1F020EE03F00650D9260750DA2237
:104390000B50300FDF6ED6EFA1F020EE03F0065089
:1043A000D9260750DA220B50370FDF6E120062EC6D
:1043B000B2F0000E1B6E000E1A6E96ECB0F0000EFE
:1043C0001A6E000E196E000E1C6E460E1B6E030E4A
:1043D0001E6E200E1D6EFF0E206E1F6804ECB1F0E5
:1043E000000E1A6E000E196E010E1C6EBD0E1B6EB5
:1043F000030E1E6E200E1D6EFF0E206E1F6804EC55
:10440000B1F0000E0D6E850E0C6E010E0F6EE00EFB
:104410000E6E000E116E850E106E010E136EBD0E27
:10442000126EFF0E156E146843ECA7F0010E0D6EB0
:104430000B0E0C6E010E0F6EE00E0E6E010E116E65
:104440000B0E106E010E136EBD0E126EFF0E156E6A
:10445000146843ECA7F0010E0D6E900E0C6E010E69
:104460000F6EE00E0E6E010E116E900E106E010EAC
:10447000136EBD0E126EFF0E156E146843ECA7F09E
:10448000020E0D6E150E0C6E010E0F6EE00E0E6E0E
:10449000020E116E150E106E010E136EBD0E126E11
:1044A000FF0E156E146843ECA7F0020E0D6E9B0E06
:1044B0000C6E010E0F6EE00E0E6E020E116E9B0E54
:1044C000106E010E136EBD0E126EFF0E156E146887
:1044D00043ECA7F01200EEC02CF05BC02DF0000101
:1044E000ED51FD08296E000ED8A0E82A02082A6EB8
:1044F000000E2B6E29C019F02AC01AF0010E1C6E96
:10450000950E1B6E000E1E6E030E1D6EFF0E206EAE
:104510001F68EBECB0F0ACECB1F0FF0E096E086870
:1045200010ECAEF0000E59ECB0F0F60E2924086E37
:10453000FF0E2A20096E010E0B6EA30E0A6E1DECF3
:10454000B1F0260E126E000E136E010E146E2D5079
:104550002BEC9DF0270E0C6E000E0D6E000E0F6EF4
:10456000020E0E6EB4EC9EF0600E295E000E2A5A0A
:10457000050E2D60BEEFA2F0C0EFA2F0EBEFA2F0AF
:104580002D500408256E2C04D8A4C9EFA2F0CBEF5F
:10459000A2F0CFEFA2F00C0E2C6ED0EFA2F02C0602
:1045A000FF0E216EFF0E226E2C50236E246A2150C6
:1045B0002326225024228F0E2324F66EFC0E242064
:1045C000F76EF86A000EF8220800F5CF2DF025509E
:1045D0002D5EEDEFA2F0040E2D5E040E2B261E0EB6
:1045E0002B64F5EFA2F0F7EFA2F07AEFA2F0120041
:1045F000EEC02BF05BC02CF00001ED51FD08286EE1
:10460000000ED8A0E82A0208296E000E2A6E28C0E3
:1046100019F029C01AF0010E1C6E950E1B6E000ECB
:104620001E6E030E1D6EFF0E206E1F68EBECB0F0C9
:10463000ACECB1F0FF0E096E086810ECAEF0000EA5
:1046400059ECB0F0F60E2824086EFF0E2920096EF2
:10465000010E0B6EA30E0A6E1DECB1F0250E126E4C
:10466000000E136E010E146E2C502BEC9DF0260ED6
:104670000C6E000E0D6E000E0F6E020E0E6EB4EC80
:104680009EF0600E285E000E295A2C04D8A44BEF31
:10469000A3F04DEFA3F073EFA3F02B04D8A453EFD6
:1046A000A3F055EFA3F059EFA3F00C0E2B6E5AEFC9
:1046B000A3F02B06FF0E216EFF0E226E2B50236EF1
:1046C000246A21502326225024228F0E2324F66EA2
:1046D000FC0E2420F76EF86A000EF8220800F5CFD1
:1046E0002CF074EFA3F02C062A2A060E2A647BEF26
:1046F000A3F07DEFA3F007EFA3F012000634073418
:104700000D6E0D50D8A487EFA3F089EFA3F093EFBF
:10471000A3F0000E046E000E056E000E066E000E75
:10472000076E00EFA4F004C008F005C009F006C051
:104730000AF007C00BF0200EA3EFA3F0D8900B32C5
:104740000A3209320832E82E9EEFA3F008500C6EB0
:10475000068EFF0E0416FF0E0516FF0E0616000E3F
:104760000716960E0D5E0DBEBAEFA3F0B8EFA3F0DC
:10477000D0EFA3F00D50800A970FD8B0C2EFA3F08E
:10478000C4EFA3F0C6EFA3F089EFA3F0D8900732EF
:104790000632053204320D3EC6EFA3F0E8EFA3F077
:1047A0001F0E0D64D6EFA3F0D8EFA3F0E0EFA3F057
:1047B00089EFA3F0D89004360536063607360D0685
:1047C0000D50D8A4E6EFA3F0E8EFA3F0DAEFA3F0E2
:1047D0000C50D8B4EEEFA3F0F0EFA3F0F8EFA3F095
:1047E000071E061E051E046C000E05220622072267
:1047F00004C004F005C005F006C006F007C007F0CD
:104800001200000E04140C6E000E05140D6E800EC6
:1048100006140E6E7F0E07140F6E0C500D100E1046
:104820000F10D8A416EFA4F018EFA4F020EFA4F016
:10483000000E046E000E056E000E066E000E076E72
:10484000000E08140C6E000E09140D6E800E0A1472
:104850000E6E7F0E0B140F6E0C500D100E100F10FD
:10486000D8A435EFA4F037EFA4F03FEFA4F0000E8A
:10487000086E000E096E000E0A6E000E0B6E07AE7B
:1048800044EFA4F046EFA4F04FEFA4F0046C051E33
:10489000D8B0052A061ED8B0062A800E07560BAEE1
:1048A00054EFA4F056EFA4F05FEFA4F0086C091EDB
:1048B000D8B0092A0A1ED8B00A2A800E0B56000E5C
:1048C000041A000E051A000E061A800E071A000EB2
:1048D000081A000E091A000E0A1A800E0B1A085048
:1048E000045C095005580A5006580B500758D8B0B8
:1048F0007CEFA4F07EEFA4F081EFA4F0D89082EFDB
:10490000A4F0D8801200000E076E060E066EEDC0F1
:1049100004F0056AFBECA9F004C00AF005C00BF036
:10492000FF0E0D6EEC0E0C6E03ECB2F0FD0E0A24C1
:10493000246E020E0B20256EEDC00AF00B6A000EED
:104940000D6E060E0C6EDDECA8F00A50060DF3CFCE
:1049500026F0000E276E24C019F025C01AF0010EB3
:104960001C6E950E1B6E000E1E6E030E1D6EFF0E4E
:10497000206E1F68EBECB0F0ACECB1F0FF0E096EEE
:10498000086810ECAEF0000E59ECB0F0F60E2424DE
:10499000086EFF0E2520096E010E0B6EA30E0A6E27
:1049A0001DECB1F0210E126E000E136E010E146E8E
:1049B00026502BEC9DF0220E0C6E000E0D6E000E9C
:1049C0000F6E020E0E6EB4EC9EF0780E245E000E9A
:1049D000255A050E2664EFEFA4F0F1EFA4F0F5EFF1
:1049E000A4F0060E265EF7EFA4F0120E266E060E59
:1049F0002726170E2764FFEFA4F001EFA5F0ABEF19
:104A0000A4F01200910E82ECB2F00C5078ECB2F0EF
:104A1000920E82ECB2F00D5078ECB2F0930E82EC74
:104A2000B2F00E5078ECB2F0940E82ECB2F00F506F
:104A300078ECB2F0950E82ECB2F0105078ECB2F057
:104A4000960E82ECB2F0115078ECB2F0970E82EC38
:104A5000B2F0125078ECB2F0980E82ECB2F0135033
:104A600078ECB2F0630E82ECB2F014C017F015C00F
:104A700018F00B0E196ED89018321732192E3BEF22
:104A8000A5F017501F0B78ECB2F0640E82ECB2F078
:104A900014C017F015C018F0050E196ED890183212
:104AA0001732192E4EEFA5F017503F0B78ECB2F0ED
:104AB000650E82ECB2F014501F0B78ECB2F0900E41
:104AC00082ECB2F01650D8B468EFA5F06AEFA5F00A
:104AD0006FEFA5F0B00E78ECB2F072EFA5F0900E8B
:104AE00078ECB2F0800E096E900E26ECB2F0120057
:104AF000D7ECA1F0ACECB1F0000E096EFA0E086E26
:104B0000000E0B6E0A0E0A6E1DECB1F0020E59EC8F
:104B1000B0F0FF0E096E086810ECAEF0480E0C6E97
:104B2000FF0E0D6E000E0F6E0C0E0E6EB4EC9EF0AE
:104B3000010E59ECB0F0010E096E2C0E086E010E3C
:104B40000B6EBE0E0A6E1DECB1F0EC0E0C6EFF0E7D
:104B50000D6E000E0F6E020E0E6EB4EC9EF0010E86
:104B6000096EB30E086E010E0B6EBE0E0A6E1DECC2
:104B7000B1F0D70E0C6EFF0E0D6E000E0F6E030E11
:104B80000E6EB4EC9EF0000E096E010E086E000E63
:104B90000B6E500E0A6E1DECB1F0D70E0C6EFC0EB3
:104BA0000D6E000E0F6E2D0E0E6EB4EC9EF0450EC7
:104BB0000C6EFE0E0D6E000E0F6E190E0E6EB4EC26
:104BC0009EF06C0E0C6EFF0E0D6E000E0F6E090E39
:104BD0000E6EB4EC9EF012000001EB51D8A4F3EF7E
:104BE000A5F0F5EFA5F057EFA6F0010E18ECB0F028
:104BF00009B2FDEFA5F0FFEFA5F02CEFA6F0FF0E38
:104C00000716FF0E0816010E0916869C060E64ECA8
:104C1000AFF0868C350EE82EFED700F0869C020E93
:104C200064ECAFF0095064ECAFF007C00BF008C0C3
:104C30000CF009C00DF00CC00BF00DC00CF00D6AAB
:104C40000B5064ECAFF0075064ECAFF00A5064EC2A
:104C5000AFF0868C57EFA6F0FF0E0716FF0E081672
:104C6000010E0916859C060E64ECAFF0858C350E9E
:104C7000E82EFED700F0859C020E64ECAFF00950E0
:104C800064ECAFF007C00BF008C00CF009C00DF0E9
:104C90000CC00BF00DC00CF00D6A0B5064ECAFF0C3
:104CA000075064ECAFF00A5064ECAFF0858C920EC4
:104CB0000B6E730EE82EFED70B2EFCD700F0120001
:104CC000000E166E000E156E0E50116E106A10C09A
:104CD00017F011C018F0196A000E126E020E1A6E4B
:104CE0001A501710076E000E1810086E000E1910DB
:104CF000096E01ECABF0146E1428D8B482EFA6F064
:104D000084EFA6F089EFA6F014501526000E1622A7
:104D1000122A1A2AF10E1A6490EFA6F092EFA6F06A
:104D200070EFA6F015C004F016C005F012C006F032
:104D3000076A9EECADF004C015F005C016F0FE0E3B
:104D40001710076E000E1810086E000E1910096E6D
:104D500015C00AF0ECECA5F0000E136E000E1A6EF2
:104D60001A501710076E000E1810086E000E19105A
:104D7000096E01ECABF0131A1A2A1A28D8A4C3EF53
:104D8000A6F0C5EFA6F0B0EFA6F0FF0E1710076E65
:104D9000000E1810086E000E1910096E13C00AF0EC
:104DA000ECECA5F01200000E1B6E000E1A6E96ECD5
:104DB000B0F0ACECB1F0000E59ECB0F0FF0E096EA3
:104DC000086810ECAEF0000E286E000E296E283830
:104DD000F00B2910226E1CC023F01DC024F0256AA0
:104DE000080ED890233624362536E82EF1EFA6F0AB
:104DF00022501E6E1F6A206A1E5023121F5024125A
:104E00002050251223C007F024C008F025C009F067
:104E100001ECABF0216E260E126E000E136E2150C7
:104E2000D7ECACF0260E0C6E000E0D6E000E0F6E61
:104E3000020E0E6EB4EC9EF0F70E0C6EFF0E0D6EB1
:104E4000000E0F6E010E0E6EB4EC9EF0292A0F0EAE
:104E500029642DEFA7F02FEFA7F0E7EFA6F0300EB3
:104E60000C6EFD0E0D6E000E0F6E010E0E6EB4EC8C
:104E70009EF0282A0F0E286440EFA7F042EFA7F01B
:104E8000E5EFA6F01200910E82ECB2F00C5078EC37
:104E9000B2F0920E82ECB2F00D5078ECB2F0930EBC
:104EA00082ECB2F00E5078ECB2F0940E82ECB2F0DC
:104EB0000F5078ECB2F0950E82ECB2F0105078EC16
:104EC000B2F0960E82ECB2F0115078ECB2F0970E80
:104ED00082ECB2F0125078ECB2F0980E82ECB2F0A4
:104EE000135078ECB2F0630E82ECB2F014C016F0FE
:104EF00015C017F00B0E186ED89017321632182EF8
:104F00007CEFA7F016501F0B78ECB2F0640E82EC29
:104F1000B2F014C016F015C017F0050E186ED89038
:104F200017321632182E8FEFA7F016503F0B78EC81
:104F3000B2F0650E82ECB2F014501F0B78ECB2F0B8
:104F4000900E82ECB2F0800E78ECB2F0800E096E1A
:104F5000900E26ECB2F012005BC00AF00B6AFF0E56
:104F60000D6EFE0E0C6E03ECB2F0FD0E0A24246EE4
:104F7000020E0B20256EEEC026F0000E276E24C018
:104F800019F025C01AF0010E1C6E950E1B6E000E56
:104F90001E6E030E1D6EFF0E206E1F68EBECB0F050
:104FA000ACECB1F0FF0E096E086810ECAEF0000E2C
:104FB00059ECB0F0F60E2424086EFF0E2520096E81
:104FC000010E0B6EA30E0A6E1DECB1F0210E126ED7
:104FD000000E136E010E146E26502BEC9DF0220E67
:104FE0000C6E000E0D6E000E0F6E020E0E6EB4EC07
:104FF0009EF03C0E245E000E255A010E266403EF3F
:10500000A8F005EFA8F008EFA8F026060AEFA8F030
:105010000C0E266E272A0B0E276411EFA8F013EF53
:10502000A8F0BFEFA7F01200630E82ECB2F008C048
:105030000CF009C00DF00B0E0E6ED8900D320C3234
:105040000E2E1DEFA8F00C501F0B78ECB2F0640E82
:1050500082ECB2F008C00CF009C00DF0050E0E6E27
:10506000D8900D320C320E2E30EFA8F00C503F0BC2
:1050700078ECB2F0650E82ECB2F008501F0B78ECC1
:10508000B2F0600E82ECB2F00AC00CF00BC00DF072
:105090000B0E0E6ED8900D320C320E2E4AEFA8F089
:1050A0000C501F0B78ECB2F0610E82ECB2F00AC02B
:1050B0000CF00BC00DF0050E0E6ED8900D320C32B8
:1050C0000E2E5DEFA8F00C503F0B78ECB2F0620EA4
:1050D00082ECB2F00A501F0B78ECB2F0220E82EC98
:1050E000B2F06DECB2F00F6E0F9C0F5078ECB2F096
:1050F0001200990E82ECB2F00C5078ECB2F09A0EDD
:1051000082ECB2F00D5078ECB2F09B0E82ECB2F073
:105110000E5078ECB2F09C0E82ECB2F00F5078ECAE
:10512000B2F09D0E82ECB2F0105078ECB2F0630E4B
:1051300082ECB2F012C015F013C016F00B0E176E11
:10514000D89016321532172EA0EFA8F015501F0B6D
:1051500078ECB2F0640E82ECB2F012C015F013C01D
:1051600016F0050E176ED89016321532172EB3EFC3
:10517000A8F015503F0B78ECB2F0650E82ECB2F05F
:1051800012501F0B78ECB2F0900E82ECB2F014507B
:10519000D8B4CDEFA8F0CFEFA8F0D4EFA8F0600E10
:1051A00078ECB2F0D7EFA8F0400E78ECB2F0400EF9
:1051B000096E900E26ECB2F01200000E0F6E0DBEBE
:1051C000E6EFA8F0E4EFA8F0ECEFA8F00C6C0D1EF1
:1051D000D8B00D2A010E0F6E0BBEF3EFA8F0F1EF61
:1051E000A8F0F9EFA8F00A6C0B1ED8B00B2A010E3C
:1051F0000F1A000E116E000E106E0C500D10D8B468
:1052000004EFA9F006EFA9F02EEFA9F0010E0E6E43
:105210000EEFA9F0D8900C360D360E2A0DAE13EF16
:10522000A9F015EFA9F00AEFA9F0D89010361136C1
:105230000C500A5C0D500B58D8A021EFA9F023EFB9
:10524000A9F028EFA9F00C500A5E0D500B5A1080FF
:10525000D8900D320C320E2E15EFA9F00F50D8B4A5
:1052600034EFA9F036EFA9F03AEFA9F0106C111E57
:10527000D8B0112A10C00AF011C00BF012008C92A5
:10528000878245ECB2F0110E286E3C0E276ECB0ED5
:10529000E82EFED7272EFCD7282EFAD700F0010ED5
:1052A00053ECAAF00009D8A458EFA9F05AEFA9F0DE
:1052B0005DEFA9F0010E9FEFA9F0010EC2ECB1F075
:1052C000010ED8ECB1F00A0E146E010E36ECB1F0FE
:1052D000FF0EACECB2F0000E1B6E000E1A6E96ECD8
:1052E000B0F0ACECB1F0010E0001DC6F000E59EC37
:1052F000B0F0000E096E0A0E086E000E0B6E0A0E5C
:105300000A6E1DECB1F0FF0E096E086810ECAEF0ED
:10531000900E0C6EFE0E0D6E000E0F6E170E0E6EC2
:10532000B4EC9EF0290E286E960E276E7F0EE82EA6
:10533000FED7272EFCD7282EFAD700F0000E120039
:10534000000E16ECB2F00001D56F010E16ECB2F0B3
:105350000001D46F020E16ECB2F00001D36F040E00
:1053600016ECB2F00001D26F050E16ECB2F000019F
:10537000D16F060E16ECB2F00001D06FD0510F0BBA
:10538000096ED039070B0A0DF3500924EF6FD15184
:105390000F0B096ED139070B0A0DF3500924EE6F7C
:1053A000D2510F0B096ED239070B0A0DF3500924A5
:1053B0005B6ED3510F0B096ED339030B0A0DF350FB
:1053C0000924ED6FD4510F0B096EED513C0DF3CF55
:1053D0000AF0F4CF0BF0D439070B0C6E0C500A0D09
:1053E000F3500A26F4500B2209500A24E76F000EEE
:1053F0000B20E86F1200000E096E05BE04EFAAF044
:1054000002EFAAF00AEFAAF0046C051ED8B0052A34
:10541000010E096E07BE11EFAAF00FEFAAF015EF0B
:10542000AAF0066C071ED8B0072A06500710D8B499
:105430001CEFAAF01EEFAAF042EFAAF0010E086ED0
:1054400026EFAAF0D89006360736082A07AE2BEFCB
:10545000AAF02DEFAAF022EFAAF00650045C075044
:105460000558D8A036EFAAF038EFAAF03CEFAAF022
:105470000650045E0750055AD89007320632082EAF
:105480002DEFAAF00950D8B448EFAAF04AEFAAF0DD
:105490004EEFAAF0046C051ED8B0052A04C004F033
:1054A00005C005F01200256E25C0DDF00001DD51BC
:1054B000D8A45DEFAAF05FEFAAF069EFAAF0010EA1
:1054C000B56FE00EB46F010EB36F100EB26F7EEFCA
:1054D000AAF0DD05D8A46FEFAAF071EFAAF07BEF78
:1054E000AAF0030EB56F200EB46F010EB36FE00E7D
:1054F000B26F7EEFAAF0000EAAEFAAF08792090E13
:10550000246E1E0E236EE40EE82EFED7232EFCD74B
:10551000242EFAD700D08782090E246E1E0E236E29
:10552000E40EE82EFED7232EFCD7242EFAD700D087
:10553000000EA5ECB2F0266E750E2618D8B4A3EFB7
:10554000AAF0A5EFAAF0A7EFAAF07BEFAAF055EC1E
:1055500097F0010E1200ACECB1F0000E096E0A0ECD
:10556000086E000E0B6E0A0E0A6E1DECB1F0FF0EF7
:10557000096E0868000E0B6E000E0A6E14ECA8F09F
:10558000000E59ECB0F0170E126E000E136E000EE6
:10559000146E0001D890EA312BEC9DF0170E0C6EC2
:1055A000000E0D6E000E0F6E030E0E6EB4EC9EF02C
:1055B000280E0C6EFE0E0D6E000E0F6E010E0E6E9E
:1055C000B4EC9EF00001EAA1E8EFAAF0EAEFAAF03D
:1055D000F6EFAAF0FB0E0C6EFF0E0D6E000E0F6EB6
:1055E000010E0E6EB4EC9EF000EFABF0EA0E0C6E06
:1055F000FF0E0D6E000E0F6E010E0E6EB4EC9EF0DF
:105600001200010E18ECB0F009B209EFABF00BEF8D
:10561000ABF030EFABF0FF0E0716FF0E0816010ED1
:105620000916869C030E64ECAFF0095064ECAFF0F1
:1056300007C00AF008C00BF009C00CF00BC00AF05C
:105640000CC00BF00C6A0A5064ECAFF0075064EC2D
:10565000AFF0000E64ECAFF00D6E868C53EFABF044
:10566000FF0E0716FF0E0816010E0916859C030E85
